{"abi":[{"type":"constructor","inputs":[{"name":"_callback_sender","type":"address","internalType":"address"},{"name":"_stalenessThreshold","type":"uint256","internalType":"uint256"}],"stateMutability":"payable"},{"type":"receive","stateMutability":"payable"},{"type":"function","name":"DOMAIN_SEPARATOR","inputs":[],"outputs":[{"name":"","type":"bytes32","internalType":"bytes32"}],"stateMutability":"view"},{"type":"function","name":"coverDebt","inputs":[],"outputs":[],"stateMutability":"nonpayable"},{"type":"function","name":"getActiveFeeds","inputs":[],"outputs":[{"name":"","type":"bytes32[]","internalType":"bytes32[]"}],"stateMutability":"view"},{"type":"function","name":"getAllFeeds","inputs":[],"outputs":[{"name":"","type":"bytes32[]","internalType":"bytes32[]"}],"stateMutability":"view"},{"type":"function","name":"getFeed","inputs":[{"name":"feedId","type":"bytes32","internalType":"bytes32"}],"outputs":[{"name":"","type":"tuple","internalType":"struct FeedRegistry.Feed","components":[{"name":"aggregator","type":"address","internalType":"address"},{"name":"destinationChainId","type":"uint64","internalType":"uint64"},{"name":"destinationFeed","type":"address","internalType":"address"},{"name":"identifier","type":"string","internalType":"string"},{"name":"active","type":"bool","internalType":"bool"},{"name":"registeredAt","type":"uint256","internalType":"uint256"}]}],"stateMutability":"view"},{"type":"function","name":"getFeedsByAggregator","inputs":[{"name":"aggregator","type":"address","internalType":"address"}],"outputs":[{"name":"","type":"bytes32[]","internalType":"bytes32[]"}],"stateMutability":"view"},{"type":"function","name":"owner","inputs":[],"outputs":[{"name":"","type":"address","internalType":"address"}],"stateMutability":"view"},{"type":"function","name":"pay","inputs":[{"name":"amount","type":"uint256","internalType":"uint256"}],"outputs":[],"stateMutability":"nonpayable"},{"type":"function","name":"readAndEmit","inputs":[{"name":"feedId","type":"bytes32","internalType":"bytes32"}],"outputs":[],"stateMutability":"nonpayable"},{"type":"function","name":"readAndEmitAll","inputs":[{"name":"","type":"address","internalType":"address"}],"outputs":[],"stateMutability":"nonpayable"},{"type":"function","name":"registerFeed","inputs":[{"name":"aggregator","type":"address","internalType":"address"},{"name":"destinationChainId","type":"uint64","internalType":"uint64"},{"name":"destinationFeed","type":"address","internalType":"address"},{"name":"identifier","type":"string","internalType":"string"}],"outputs":[{"name":"","type":"bytes32","internalType":"bytes32"}],"stateMutability":"nonpayable"},{"type":"function","name":"setFeedActive","inputs":[{"name":"feedId","type":"bytes32","internalType":"bytes32"},{"name":"active","type":"bool","internalType":"bool"}],"outputs":[],"stateMutability":"nonpayable"},{"type":"function","name":"setStalenessThreshold","inputs":[{"name":"_threshold","type":"uint256","internalType":"uint256"}],"outputs":[],"stateMutability":"nonpayable"},{"type":"function","name":"stalenessThreshold","inputs":[],"outputs":[{"name":"","type":"uint256","internalType":"uint256"}],"stateMutability":"view"},{"type":"function","name":"transferOwnership","inputs":[{"name":"newOwner","type":"address","internalType":"address"}],"outputs":[],"stateMutability":"nonpayable"},{"type":"event","name":"CrossChainMessageReady","inputs":[{"name":"feedId","type":"bytes32","indexed":true,"internalType":"bytes32"},{"name":"aggregator","type":"address","indexed":true,"internalType":"address"},{"name":"destinationChainId","type":"uint64","indexed":false,"internalType":"uint64"},{"name":"destinationFeed","type":"address","indexed":false,"internalType":"address"},{"name":"decimals","type":"uint8","indexed":false,"internalType":"uint8"},{"name":"description","type":"string","indexed":false,"internalType":"string"},{"name":"roundId","type":"uint80","indexed":false,"internalType":"uint80"},{"name":"answer","type":"int256","indexed":false,"internalType":"int256"},{"name":"startedAt","type":"uint256","indexed":false,"internalType":"uint256"},{"name":"updatedAt","type":"uint256","indexed":false,"internalType":"uint256"},{"name":"answeredInRound","type":"uint80","indexed":false,"internalType":"uint80"},{"name":"timestamp","type":"uint256","indexed":false,"internalType":"uint256"}],"anonymous":false},{"type":"event","name":"FeedRegistered","inputs":[{"name":"feedId","type":"bytes32","indexed":true,"internalType":"bytes32"},{"name":"aggregator","type":"address","indexed":true,"internalType":"address"},{"name":"destinationChainId","type":"uint64","indexed":false,"internalType":"uint64"},{"name":"destinationFeed","type":"address","indexed":false,"internalType":"address"},{"name":"identifier","type":"string","indexed":false,"internalType":"string"}],"anonymous":false},{"type":"event","name":"FeedStatusChanged","inputs":[{"name":"feedId","type":"bytes32","indexed":true,"internalType":"bytes32"},{"name":"active","type":"bool","indexed":false,"internalType":"bool"}],"anonymous":false},{"type":"error","name":"InvalidPrice","inputs":[{"name":"answer","type":"int256","internalType":"int256"}]},{"type":"error","name":"InvalidRound","inputs":[{"name":"roundId","type":"uint80","internalType":"uint80"}]},{"type":"error","name":"StalePrice","inputs":[{"name":"updatedAt","type":"uint256","internalType":"uint256"},{"name":"threshold","type":"uint256","internalType":"uint256"}]}],"bytecode":{"object":"0x60a0604052604051613248380380613248833981810160405281019061002591906102b9565b813360025f6101000a81548173ffffffffffffffffffffffffffffffffffffffff021916908373ffffffffffffffffffffffffffffffffffffffff160217905550805f5f6101000a81548173ffffffffffffffffffffffffffffffffffffffff021916908373ffffffffffffffffffffffffffffffffffffffff1602179055506100b4816101d160201b60201c565b503360065f6101000a81548173ffffffffffffffffffffffffffffffffffffffff021916908373ffffffffffffffffffffffffffffffffffffffff160217905550806007819055507f8b73c3c69bb8fe3d512ecc4cf759cc79239f7b179b0ffacaa9a75d522b39400f6040518060400160405280600a81526020017f4665656452656164657200000000000000000000000000000000000000000000815250805190602001206040518060400160405280600581526020017f312e302e300000000000000000000000000000000000000000000000000000008152508051906020012046306040516020016101ad95949392919061032d565b6040516020818303038152906040528051906020012060808181525050505061037e565b6001805f8373ffffffffffffffffffffffffffffffffffffffff1673ffffffffffffffffffffffffffffffffffffffff1681526020019081526020015f205f6101000a81548160ff02191690831515021790555050565b5f5ffd5b5f73ffffffffffffffffffffffffffffffffffffffff82169050919050565b5f6102558261022c565b9050919050565b6102658161024b565b811461026f575f5ffd5b50565b5f815190506102808161025c565b92915050565b5f819050919050565b61029881610286565b81146102a2575f5ffd5b50565b5f815190506102b38161028f565b92915050565b5f5f604083850312156102cf576102ce610228565b5b5f6102dc85828601610272565b92505060206102ed858286016102a5565b9150509250929050565b5f819050919050565b610309816102f7565b82525050565b61031881610286565b82525050565b6103278161024b565b82525050565b5f60a0820190506103405f830188610300565b61034d6020830187610300565b61035a6040830186610300565b610367606083018561030f565b610374608083018461031e565b9695505050505050565b608051612eb26103965f395f6105f40152612eb25ff3fe6080604052600436106100eb575f3560e01c80639827deaa11610089578063c7a9c42911610058578063c7a9c429146102ce578063edd3a5471461030a578063f2fde38b14610332578063fb01e7f21461035a576100f2565b80639827deaa14610216578063a84f6ebb14610252578063c290d6911461027c578063c7793b37146102a4576100f2565b80633644e515116100c55780633644e51514610184578063756d309e146101ae5780637a90b990146101d65780638da5cb5b146101ec576100f2565b80630551cc49146100f6578063128767981461011e578063280aebcf14610148576100f2565b366100f257005b5f5ffd5b348015610101575f5ffd5b5061011c60048036038101906101179190611b6c565b610382565b005b348015610129575f5ffd5b506101326105be565b60405161013f9190611c57565b60405180910390f35b348015610153575f5ffd5b5061016e60048036038101906101699190611ca1565b6105cf565b60405161017b9190611e25565b60405180910390f35b34801561018f575f5ffd5b506101986105f2565b6040516101a59190611e54565b60405180910390f35b3480156101b9575f5ffd5b506101d460048036038101906101cf9190611ca1565b610616565b005b3480156101e1575f5ffd5b506101ea6106e3565b005b3480156101f7575f5ffd5b506102006107ab565b60405161020d9190611e7c565b60405180910390f35b348015610221575f5ffd5b5061023c60048036038101906102379190611b6c565b6107d0565b6040516102499190611c57565b60405180910390f35b34801561025d575f5ffd5b506102666107ed565b6040516102739190611ea4565b60405180910390f35b348015610287575f5ffd5b506102a2600480360381019061029d9190611ee7565b6107f3565b005b3480156102af575f5ffd5b506102b8610889565b6040516102c59190611c57565b60405180910390f35b3480156102d9575f5ffd5b506102f460048036038101906102ef9190611f9d565b61089a565b6040516103019190611e54565b60405180910390f35b348015610315575f5ffd5b50610330600480360381019061032b919061204b565b610992565b005b34801561033d575f5ffd5b5061035860048036038101906103539190611b6c565b610a3b565b005b348015610365575f5ffd5b50610380600480360381019061037b9190611ee7565b610b7b565b005b5f61038d6003610c14565b90505f5f90505b81518110156105b9575f6103cc8383815181106103b4576103b3612089565b5b60200260200101516003610d9d90919063ffffffff16565b9050805f015173ffffffffffffffffffffffffffffffffffffffff1663feaf968c6040518163ffffffff1660e01b815260040160a060405180830381865afa92505050801561043957506040513d601f19601f82011682018060405250810190610436919061213c565b60015b61044357506105ac565b5f865f015173ffffffffffffffffffffffffffffffffffffffff1663313ce5676040518163ffffffff1660e01b8152600401602060405180830381865afa158015610490573d5f5f3e3d5ffd5b505050506040513d601f19601f820116820180604052508101906104b491906121e9565b90505f875f015173ffffffffffffffffffffffffffffffffffffffff16637284e4166040518163ffffffff1660e01b81526004015f60405180830381865afa158015610502573d5f5f3e3d5ffd5b505050506040513d5f823e3d601f19601f8201168201806040525081019061052a919061232e565b90505f6040518060e001604052808969ffffffffffffffffffff1681526020018881526020018781526020018681526020018569ffffffffffffffffffff1681526020018460ff1681526020018381525090506105a28b8b8151811061059357610592612089565b5b60200260200101518a83610f58565b5050505050505050505b8080600101915050610394565b505050565b60606105ca6003610fe4565b905090565b6105d7611a46565b6105eb826003610d9d90919063ffffffff16565b9050919050565b7f000000000000000000000000000000000000000000000000000000000000000081565b5f61062b826003610d9d90919063ffffffff16565b90508060800151610671576040517f08c379a0000000000000000000000000000000000000000000000000000000008152600401610668906123cf565b60405180910390fd5b5f5f600754116106a25761069d825f015173ffffffffffffffffffffffffffffffffffffffff1661103e565b6106d1565b6106d0600754835f015173ffffffffffffffffffffffffffffffffffffffff1661129090919063ffffffff16565b5b90506106de838383610f58565b505050565b5f5f5f9054906101000a900473ffffffffffffffffffffffffffffffffffffffff1673ffffffffffffffffffffffffffffffffffffffff16639b6c56ec306040518263ffffffff1660e01b815260040161073d9190611e7c565b602060405180830381865afa158015610758573d5f5f3e3d5ffd5b505050506040513d601f19601f8201168201806040525081019061077c91906123ed565b90506107a85f5f9054906101000a900473ffffffffffffffffffffffffffffffffffffffff1682611303565b50565b60065f9054906101000a900473ffffffffffffffffffffffffffffffffffffffff1681565b60606107e682600361144a90919063ffffffff16565b9050919050565b60075481565b60015f3373ffffffffffffffffffffffffffffffffffffffff1673ffffffffffffffffffffffffffffffffffffffff1681526020019081526020015f205f9054906101000a900460ff1661087c576040517f08c379a000000000000000000000000000000000000000000000000000000000815260040161087390612462565b60405180910390fd5b6108863382611303565b50565b60606108956003610c14565b905090565b5f60065f9054906101000a900473ffffffffffffffffffffffffffffffffffffffff1673ffffffffffffffffffffffffffffffffffffffff163373ffffffffffffffffffffffffffffffffffffffff161461092a576040517f08c379a0000000000000000000000000000000000000000000000000000000008152600401610921906124ca565b60405180910390fd5b61098786868686868080601f0160208091040260200160405190810160405280939291908181526020018383808284375f81840152601f19601f8201169050808301925050505050505060036114e090949392919063ffffffff16565b905095945050505050565b60065f9054906101000a900473ffffffffffffffffffffffffffffffffffffffff1673ffffffffffffffffffffffffffffffffffffffff163373ffffffffffffffffffffffffffffffffffffffff1614610a21576040517f08c379a0000000000000000000000000000000000000000000000000000000008152600401610a18906124ca565b60405180910390fd5b610a37828260036119079092919063ffffffff16565b5050565b60065f9054906101000a900473ffffffffffffffffffffffffffffffffffffffff1673ffffffffffffffffffffffffffffffffffffffff163373ffffffffffffffffffffffffffffffffffffffff1614610aca576040517f08c379a0000000000000000000000000000000000000000000000000000000008152600401610ac1906124ca565b60405180910390fd5b5f73ffffffffffffffffffffffffffffffffffffffff168173ffffffffffffffffffffffffffffffffffffffff1603610b38576040517f08c379a0000000000000000000000000000000000000000000000000000000008152600401610b2f90612532565b60405180910390fd5b8060065f6101000a81548173ffffffffffffffffffffffffffffffffffffffff021916908373ffffffffffffffffffffffffffffffffffffffff16021790555050565b60065f9054906101000a900473ffffffffffffffffffffffffffffffffffffffff1673ffffffffffffffffffffffffffffffffffffffff163373ffffffffffffffffffffffffffffffffffffffff1614610c0a576040517f08c379a0000000000000000000000000000000000000000000000000000000008152600401610c01906124ca565b60405180910390fd5b8060078190555050565b60605f5f90505f5f90505b8360010180549050811015610c8f57835f015f856001018381548110610c4857610c47612089565b5b905f5260205f20015481526020019081526020015f206003015f9054906101000a900460ff1615610c82578180610c7e9061257d565b9250505b8080600101915050610c1f565b505f8167ffffffffffffffff811115610cab57610caa612218565b5b604051908082528060200260200182016040528015610cd95781602001602082028036833780820191505090505b5090505f5f90505f5f90505b8560010180549050811015610d9157855f015f876001018381548110610d0e57610d0d612089565b5b905f5260205f20015481526020019081526020015f206003015f9054906101000a900460ff1615610d8457856001018181548110610d4f57610d4e612089565b5b905f5260205f200154838380610d649061257d565b945081518110610d7757610d76612089565b5b6020026020010181815250505b8080600101915050610ce5565b50819350505050919050565b610da5611a46565b825f015f8381526020019081526020015f206040518060c00160405290815f82015f9054906101000a900473ffffffffffffffffffffffffffffffffffffffff1673ffffffffffffffffffffffffffffffffffffffff1673ffffffffffffffffffffffffffffffffffffffff1681526020015f820160149054906101000a900467ffffffffffffffff1667ffffffffffffffff1667ffffffffffffffff168152602001600182015f9054906101000a900473ffffffffffffffffffffffffffffffffffffffff1673ffffffffffffffffffffffffffffffffffffffff1673ffffffffffffffffffffffffffffffffffffffff168152602001600282018054610eac906125f1565b80601f0160208091040260200160405190810160405280929190818152602001828054610ed8906125f1565b8015610f235780601f10610efa57610100808354040283529160200191610f23565b820191905f5260205f20905b815481529060010190602001808311610f0657829003601f168201915b50505050508152602001600382015f9054906101000a900460ff16151515158152602001600482015481525050905092915050565b815f015173ffffffffffffffffffffffffffffffffffffffff16837f98eacf08909732d882c28676505c67cea093bb9dea7c176b7e86c5c0a8c217ba846020015185604001518560a001518660c00151875f0151886020015189604001518a606001518b6080015142604051610fd79a99989796959493929190612695565b60405180910390a3505050565b60608160010180548060200260200160405190810160405280929190818152602001828054801561103257602002820191905f5260205f20905b81548152602001906001019080831161101e575b50505050509050919050565b611046611aaf565b5f8290505f5f5f5f5f8573ffffffffffffffffffffffffffffffffffffffff1663feaf968c6040518163ffffffff1660e01b815260040160a060405180830381865afa158015611098573d5f5f3e3d5ffd5b505050506040513d601f19601f820116820180604052508101906110bc919061213c565b945094509450945094505f841361110a57836040517f38ee04a70000000000000000000000000000000000000000000000000000000081526004016111019190612736565b60405180910390fd5b5f8569ffffffffffffffffffff160361115a57846040517f9b5ce7f7000000000000000000000000000000000000000000000000000000008152600401611151919061274f565b60405180910390fd5b6040518060e001604052808669ffffffffffffffffffff1681526020018581526020018481526020018381526020018269ffffffffffffffffffff1681526020018773ffffffffffffffffffffffffffffffffffffffff1663313ce5676040518163ffffffff1660e01b8152600401602060405180830381865afa1580156111e4573d5f5f3e3d5ffd5b505050506040513d601f19601f8201168201806040525081019061120891906121e9565b60ff1681526020018773ffffffffffffffffffffffffffffffffffffffff16637284e4166040518163ffffffff1660e01b81526004015f60405180830381865afa158015611258573d5f5f3e3d5ffd5b505050506040513d5f823e3d601f19601f82011682018060405250810190611280919061232e565b8152509650505050505050919050565b611298611aaf565b6112a18361103e565b9050818160600151426112b49190612768565b11156112fd578060600151826040517f2730eb480000000000000000000000000000000000000000000000000000000081526004016112f492919061279b565b60405180910390fd5b92915050565b80471015611346576040517f08c379a000000000000000000000000000000000000000000000000000000000815260040161133d9061280c565b60405180910390fd5b5f811115611446575f8273ffffffffffffffffffffffffffffffffffffffff16825f67ffffffffffffffff81111561138157611380612218565b5b6040519080825280601f01601f1916602001820160405280156113b35781602001600182028036833780820191505090505b506040516113c1919061286e565b5f6040518083038185875af1925050503d805f81146113fb576040519150601f19603f3d011682016040523d82523d5f602084013e611400565b606091505b5050905080611444576040517f08c379a000000000000000000000000000000000000000000000000000000000815260040161143b906128ce565b60405180910390fd5b505b5050565b6060826002015f8373ffffffffffffffffffffffffffffffffffffffff1673ffffffffffffffffffffffffffffffffffffffff1681526020019081526020015f208054806020026020016040519081016040528092919081815260200182805480156114d357602002820191905f5260205f20905b8154815260200190600101908083116114bf575b5050505050905092915050565b5f5f73ffffffffffffffffffffffffffffffffffffffff168573ffffffffffffffffffffffffffffffffffffffff160361154f576040517f08c379a000000000000000000000000000000000000000000000000000000000815260040161154690612936565b60405180910390fd5b5f73ffffffffffffffffffffffffffffffffffffffff168373ffffffffffffffffffffffffffffffffffffffff16036115bd576040517f08c379a00000000000000000000000000000000000000000000000000000000081526004016115b49061299e565b60405180910390fd5b5f825111611600576040517f08c379a00000000000000000000000000000000000000000000000000000000081526004016115f790612a06565b60405180910390fd5b61160b858585611a11565b90505f73ffffffffffffffffffffffffffffffffffffffff16865f015f8381526020019081526020015f205f015f9054906101000a900473ffffffffffffffffffffffffffffffffffffffff1673ffffffffffffffffffffffffffffffffffffffff16146116ae576040517f08c379a00000000000000000000000000000000000000000000000000000000081526004016116a590612a6e565b60405180910390fd5b6040518060c001604052808673ffffffffffffffffffffffffffffffffffffffff1681526020018567ffffffffffffffff1681526020018473ffffffffffffffffffffffffffffffffffffffff16815260200183815260200160011515815260200142815250865f015f8381526020019081526020015f205f820151815f015f6101000a81548173ffffffffffffffffffffffffffffffffffffffff021916908373ffffffffffffffffffffffffffffffffffffffff1602179055506020820151815f0160146101000a81548167ffffffffffffffff021916908367ffffffffffffffff1602179055506040820151816001015f6101000a81548173ffffffffffffffffffffffffffffffffffffffff021916908373ffffffffffffffffffffffffffffffffffffffff16021790555060608201518160020190816117f39190612c2c565b506080820151816003015f6101000a81548160ff02191690831515021790555060a082015181600401559050508560010181908060018154018082558091505060019003905f5260205f20015f9091909190915055856002015f8673ffffffffffffffffffffffffffffffffffffffff1673ffffffffffffffffffffffffffffffffffffffff1681526020019081526020015f2081908060018154018082558091505060019003905f5260205f20015f90919091909150558473ffffffffffffffffffffffffffffffffffffffff16817f473ca6db119781e47dbee485a989bf1116fb350e7d31c38d5ca3ed4b649cc9fd8686866040516118f693929190612cfb565b60405180910390a395945050505050565b5f73ffffffffffffffffffffffffffffffffffffffff16835f015f8481526020019081526020015f205f015f9054906101000a900473ffffffffffffffffffffffffffffffffffffffff1673ffffffffffffffffffffffffffffffffffffffff16036119a8576040517f08c379a000000000000000000000000000000000000000000000000000000000815260040161199f90612d81565b60405180910390fd5b80835f015f8481526020019081526020015f206003015f6101000a81548160ff021916908315150217905550817f18931902b6f432117d45790649fd2fc88cab48cea0611c1bed703f4fdf61091c82604051611a049190612dae565b60405180910390a2505050565b5f838383604051602001611a2793929190612e40565b6040516020818303038152906040528051906020012090509392505050565b6040518060c001604052805f73ffffffffffffffffffffffffffffffffffffffff1681526020015f67ffffffffffffffff1681526020015f73ffffffffffffffffffffffffffffffffffffffff168152602001606081526020015f151581526020015f81525090565b6040518060e001604052805f69ffffffffffffffffffff1681526020015f81526020015f81526020015f81526020015f69ffffffffffffffffffff1681526020015f60ff168152602001606081525090565b5f604051905090565b5f5ffd5b5f5ffd5b5f73ffffffffffffffffffffffffffffffffffffffff82169050919050565b5f611b3b82611b12565b9050919050565b611b4b81611b31565b8114611b55575f5ffd5b50565b5f81359050611b6681611b42565b92915050565b5f60208284031215611b8157611b80611b0a565b5b5f611b8e84828501611b58565b91505092915050565b5f81519050919050565b5f82825260208201905092915050565b5f819050602082019050919050565b5f819050919050565b611bd281611bc0565b82525050565b5f611be38383611bc9565b60208301905092915050565b5f602082019050919050565b5f611c0582611b97565b611c0f8185611ba1565b9350611c1a83611bb1565b805f5b83811015611c4a578151611c318882611bd8565b9750611c3c83611bef565b925050600181019050611c1d565b5085935050505092915050565b5f6020820190508181035f830152611c6f8184611bfb565b905092915050565b611c8081611bc0565b8114611c8a575f5ffd5b50565b5f81359050611c9b81611c77565b92915050565b5f60208284031215611cb657611cb5611b0a565b5b5f611cc384828501611c8d565b91505092915050565b611cd581611b31565b82525050565b5f67ffffffffffffffff82169050919050565b611cf781611cdb565b82525050565b5f81519050919050565b5f82825260208201905092915050565b8281835e5f83830152505050565b5f601f19601f8301169050919050565b5f611d3f82611cfd565b611d498185611d07565b9350611d59818560208601611d17565b611d6281611d25565b840191505092915050565b5f8115159050919050565b611d8181611d6d565b82525050565b5f819050919050565b611d9981611d87565b82525050565b5f60c083015f830151611db45f860182611ccc565b506020830151611dc76020860182611cee565b506040830151611dda6040860182611ccc565b5060608301518482036060860152611df28282611d35565b9150506080830151611e076080860182611d78565b5060a0830151611e1a60a0860182611d90565b508091505092915050565b5f6020820190508181035f830152611e3d8184611d9f565b905092915050565b611e4e81611bc0565b82525050565b5f602082019050611e675f830184611e45565b92915050565b611e7681611b31565b82525050565b5f602082019050611e8f5f830184611e6d565b92915050565b611e9e81611d87565b82525050565b5f602082019050611eb75f830184611e95565b92915050565b611ec681611d87565b8114611ed0575f5ffd5b50565b5f81359050611ee181611ebd565b92915050565b5f60208284031215611efc57611efb611b0a565b5b5f611f0984828501611ed3565b91505092915050565b611f1b81611cdb565b8114611f25575f5ffd5b50565b5f81359050611f3681611f12565b92915050565b5f5ffd5b5f5ffd5b5f5ffd5b5f5f83601f840112611f5d57611f5c611f3c565b5b8235905067ffffffffffffffff811115611f7a57611f79611f40565b5b602083019150836001820283011115611f9657611f95611f44565b5b9250929050565b5f5f5f5f5f60808688031215611fb657611fb5611b0a565b5b5f611fc388828901611b58565b9550506020611fd488828901611f28565b9450506040611fe588828901611b58565b935050606086013567ffffffffffffffff81111561200657612005611b0e565b5b61201288828901611f48565b92509250509295509295909350565b61202a81611d6d565b8114612034575f5ffd5b50565b5f8135905061204581612021565b92915050565b5f5f6040838503121561206157612060611b0a565b5b5f61206e85828601611c8d565b925050602061207f85828601612037565b9150509250929050565b7f4e487b71000000000000000000000000000000000000000000000000000000005f52603260045260245ffd5b5f69ffffffffffffffffffff82169050919050565b6120d4816120b6565b81146120de575f5ffd5b50565b5f815190506120ef816120cb565b92915050565b5f819050919050565b612107816120f5565b8114612111575f5ffd5b50565b5f81519050612122816120fe565b92915050565b5f8151905061213681611ebd565b92915050565b5f5f5f5f5f60a0868803121561215557612154611b0a565b5b5f612162888289016120e1565b955050602061217388828901612114565b945050604061218488828901612128565b935050606061219588828901612128565b92505060806121a6888289016120e1565b9150509295509295909350565b5f60ff82169050919050565b6121c8816121b3565b81146121d2575f5ffd5b50565b5f815190506121e3816121bf565b92915050565b5f602082840312156121fe576121fd611b0a565b5b5f61220b848285016121d5565b91505092915050565b5f5ffd5b7f4e487b71000000000000000000000000000000000000000000000000000000005f52604160045260245ffd5b61224e82611d25565b810181811067ffffffffffffffff8211171561226d5761226c612218565b5b80604052505050565b5f61227f611b01565b905061228b8282612245565b919050565b5f67ffffffffffffffff8211156122aa576122a9612218565b5b6122b382611d25565b9050602081019050919050565b5f6122d26122cd84612290565b612276565b9050828152602081018484840111156122ee576122ed612214565b5b6122f9848285611d17565b509392505050565b5f82601f83011261231557612314611f3c565b5b81516123258482602086016122c0565b91505092915050565b5f6020828403121561234357612342611b0a565b5b5f82015167ffffffffffffffff8111156123605761235f611b0e565b5b61236c84828501612301565b91505092915050565b5f82825260208201905092915050565b7f4665656420696e616374697665000000000000000000000000000000000000005f82015250565b5f6123b9600d83612375565b91506123c482612385565b602082019050919050565b5f6020820190508181035f8301526123e6816123ad565b9050919050565b5f6020828403121561240257612401611b0a565b5b5f61240f84828501612128565b91505092915050565b7f417574686f72697a65642073656e646572206f6e6c79000000000000000000005f82015250565b5f61244c601683612375565b915061245782612418565b602082019050919050565b5f6020820190508181035f83015261247981612440565b9050919050565b7f556e617574686f72697a656400000000000000000000000000000000000000005f82015250565b5f6124b4600c83612375565b91506124bf82612480565b602082019050919050565b5f6020820190508181035f8301526124e1816124a8565b9050919050565b7f496e76616c6964206164647265737300000000000000000000000000000000005f82015250565b5f61251c600f83612375565b9150612527826124e8565b602082019050919050565b5f6020820190508181035f83015261254981612510565b9050919050565b7f4e487b71000000000000000000000000000000000000000000000000000000005f52601160045260245ffd5b5f61258782611d87565b91507fffffffffffffffffffffffffffffffffffffffffffffffffffffffffffffffff82036125b9576125b8612550565b5b600182019050919050565b7f4e487b71000000000000000000000000000000000000000000000000000000005f52602260045260245ffd5b5f600282049050600182168061260857607f821691505b60208210810361261b5761261a6125c4565b5b50919050565b61262a81611cdb565b82525050565b612639816121b3565b82525050565b5f61264982611cfd565b6126538185612375565b9350612663818560208601611d17565b61266c81611d25565b840191505092915050565b612680816120b6565b82525050565b61268f816120f5565b82525050565b5f610140820190506126a95f83018d612621565b6126b6602083018c611e6d565b6126c3604083018b612630565b81810360608301526126d5818a61263f565b90506126e46080830189612677565b6126f160a0830188612686565b6126fe60c0830187611e95565b61270b60e0830186611e95565b612719610100830185612677565b612727610120830184611e95565b9b9a5050505050505050505050565b5f6020820190506127495f830184612686565b92915050565b5f6020820190506127625f830184612677565b92915050565b5f61277282611d87565b915061277d83611d87565b925082820390508181111561279557612794612550565b5b92915050565b5f6040820190506127ae5f830185611e95565b6127bb6020830184611e95565b9392505050565b7f496e73756666696369656e742066756e647300000000000000000000000000005f82015250565b5f6127f6601283612375565b9150612801826127c2565b602082019050919050565b5f6020820190508181035f830152612823816127ea565b9050919050565b5f81519050919050565b5f81905092915050565b5f6128488261282a565b6128528185612834565b9350612862818560208601611d17565b80840191505092915050565b5f612879828461283e565b915081905092915050565b7f5472616e73666572206661696c656400000000000000000000000000000000005f82015250565b5f6128b8600f83612375565b91506128c382612884565b602082019050919050565b5f6020820190508181035f8301526128e5816128ac565b9050919050565b7f496e76616c69642061676772656761746f7200000000000000000000000000005f82015250565b5f612920601283612375565b915061292b826128ec565b602082019050919050565b5f6020820190508181035f83015261294d81612914565b9050919050565b7f496e76616c69642070726f7879000000000000000000000000000000000000005f82015250565b5f612988600d83612375565b915061299382612954565b602082019050919050565b5f6020820190508181035f8301526129b58161297c565b9050919050565b7f456d707479206964656e746966696572000000000000000000000000000000005f82015250565b5f6129f0601083612375565b91506129fb826129bc565b602082019050919050565b5f6020820190508181035f830152612a1d816129e4565b9050919050565b7f46656564206578697374730000000000000000000000000000000000000000005f82015250565b5f612a58600b83612375565b9150612a6382612a24565b602082019050919050565b5f6020820190508181035f830152612a8581612a4c565b9050919050565b5f819050815f5260205f209050919050565b5f6020601f8301049050919050565b5f82821b905092915050565b5f60088302612ae87fffffffffffffffffffffffffffffffffffffffffffffffffffffffffffffffff82612aad565b612af28683612aad565b95508019841693508086168417925050509392505050565b5f819050919050565b5f612b2d612b28612b2384611d87565b612b0a565b611d87565b9050919050565b5f819050919050565b612b4683612b13565b612b5a612b5282612b34565b848454612ab9565b825550505050565b5f5f905090565b612b71612b62565b612b7c818484612b3d565b505050565b5b81811015612b9f57612b945f82612b69565b600181019050612b82565b5050565b601f821115612be457612bb581612a8c565b612bbe84612a9e565b81016020851015612bcd578190505b612be1612bd985612a9e565b830182612b81565b50505b505050565b5f82821c905092915050565b5f612c045f1984600802612be9565b1980831691505092915050565b5f612c1c8383612bf5565b9150826002028217905092915050565b612c3582611cfd565b67ffffffffffffffff811115612c4e57612c4d612218565b5b612c5882546125f1565b612c63828285612ba3565b5f60209050601f831160018114612c94575f8415612c82578287015190505b612c8c8582612c11565b865550612cf3565b601f198416612ca286612a8c565b5f5b82811015612cc957848901518255600182019150602085019450602081019050612ca4565b86831015612ce65784890151612ce2601f891682612bf5565b8355505b6001600288020188555050505b505050505050565b5f606082019050612d0e5f830186612621565b612d1b6020830185611e6d565b8181036040830152612d2d818461263f565b9050949350505050565b7f46656564206e6f7420666f756e640000000000000000000000000000000000005f82015250565b5f612d6b600e83612375565b9150612d7682612d37565b602082019050919050565b5f6020820190508181035f830152612d9881612d5f565b9050919050565b612da881611d6d565b82525050565b5f602082019050612dc15f830184612d9f565b92915050565b5f8160601b9050919050565b5f612ddd82612dc7565b9050919050565b5f612dee82612dd3565b9050919050565b612e06612e0182611b31565b612de4565b82525050565b5f8160c01b9050919050565b5f612e2282612e0c565b9050919050565b612e3a612e3582611cdb565b612e18565b82525050565b5f612e4b8286612df5565b601482019150612e5b8285612e29565b600882019150612e6b8284612df5565b60148201915081905094935050505056fea2646970667358221220cb735d6e7b841eddf8d31cb44290a0953d812a612eabfc9fd7e0df459942248c64736f6c634300081c0033","linkReferences":{}},"methodIdentifiers":{"DOMAIN_SEPARATOR()":"3644e515","coverDebt()":"7a90b990","getActiveFeeds()":"c7793b37","getAllFeeds()":"12876798","getFeed(bytes32)":"280aebcf","getFeedsByAggregator(address)":"9827deaa","owner()":"8da5cb5b","pay(uint256)":"c290d691","readAndEmit(bytes32)":"756d309e","readAndEmitAll(address)":"0551cc49","registerFeed(address,uint64,address,string)":"c7a9c429","setFeedActive(bytes32,bool)":"edd3a547","setStalenessThreshold(uint256)":"fb01e7f2","stalenessThreshold()":"a84f6ebb","transferOwnership(address)":"f2fde38b"},"id":6}