{"abi":[{"type":"constructor","inputs":[{"name":"_owner","type":"address","internalType":"address"},{"name":"_feedReader","type":"address","internalType":"address"},{"name":"_originChainId","type":"uint64","internalType":"uint64"},{"name":"_service","type":"address","internalType":"address"},{"name":"_cronTopic","type":"uint256","internalType":"uint256"}],"stateMutability":"payable"},{"type":"receive","stateMutability":"payable"},{"type":"function","name":"CRON_TOPIC","inputs":[],"outputs":[{"name":"","type":"uint256","internalType":"uint256"}],"stateMutability":"view"},{"type":"function","name":"coverDebt","inputs":[],"outputs":[],"stateMutability":"nonpayable"},{"type":"function","name":"cronExecutionCount","inputs":[],"outputs":[{"name":"","type":"uint256","internalType":"uint256"}],"stateMutability":"view"},{"type":"function","name":"feedReader","inputs":[],"outputs":[{"name":"","type":"address","internalType":"address"}],"stateMutability":"view"},{"type":"function","name":"getConfig","inputs":[],"outputs":[{"name":"_feedReader","type":"address","internalType":"address"},{"name":"_originChainId","type":"uint64","internalType":"uint64"},{"name":"_cronTopic","type":"uint256","internalType":"uint256"}],"stateMutability":"view"},{"type":"function","name":"getLastCronInfo","inputs":[],"outputs":[{"name":"blockNumber","type":"uint256","internalType":"uint256"},{"name":"timestamp","type":"uint256","internalType":"uint256"},{"name":"executionCount","type":"uint256","internalType":"uint256"}],"stateMutability":"view"},{"type":"function","name":"getLastPriceRecord","inputs":[{"name":"feedId","type":"bytes32","internalType":"bytes32"}],"outputs":[{"name":"lastRoundId","type":"uint80","internalType":"uint80"},{"name":"lastAnswer","type":"int256","internalType":"int256"},{"name":"lastUpdatedAt","type":"uint256","internalType":"uint256"},{"name":"lastProcessedAt","type":"uint256","internalType":"uint256"}],"stateMutability":"view"},{"type":"function","name":"lastCronBlock","inputs":[],"outputs":[{"name":"","type":"uint256","internalType":"uint256"}],"stateMutability":"view"},{"type":"function","name":"lastCronTimestamp","inputs":[],"outputs":[{"name":"","type":"uint256","internalType":"uint256"}],"stateMutability":"view"},{"type":"function","name":"manualTrigger","inputs":[],"outputs":[],"stateMutability":"nonpayable"},{"type":"function","name":"originChainId","inputs":[],"outputs":[{"name":"","type":"uint64","internalType":"uint64"}],"stateMutability":"view"},{"type":"function","name":"pause","inputs":[],"outputs":[],"stateMutability":"nonpayable"},{"type":"function","name":"pay","inputs":[{"name":"amount","type":"uint256","internalType":"uint256"}],"outputs":[],"stateMutability":"nonpayable"},{"type":"function","name":"priceRecords","inputs":[{"name":"","type":"bytes32","internalType":"bytes32"}],"outputs":[{"name":"lastRoundId","type":"uint80","internalType":"uint80"},{"name":"lastAnswer","type":"int256","internalType":"int256"},{"name":"lastUpdatedAt","type":"uint256","internalType":"uint256"},{"name":"lastProcessedAt","type":"uint256","internalType":"uint256"}],"stateMutability":"view"},{"type":"function","name":"react","inputs":[{"name":"log","type":"tuple","internalType":"struct IReactive.LogRecord","components":[{"name":"chain_id","type":"uint256","internalType":"uint256"},{"name":"_contract","type":"address","internalType":"address"},{"name":"topic_0","type":"uint256","internalType":"uint256"},{"name":"topic_1","type":"uint256","internalType":"uint256"},{"name":"topic_2","type":"uint256","internalType":"uint256"},{"name":"topic_3","type":"uint256","internalType":"uint256"},{"name":"data","type":"bytes","internalType":"bytes"},{"name":"block_number","type":"uint256","internalType":"uint256"},{"name":"op_code","type":"uint256","internalType":"uint256"},{"name":"block_hash","type":"uint256","internalType":"uint256"},{"name":"tx_hash","type":"uint256","internalType":"uint256"},{"name":"log_index","type":"uint256","internalType":"uint256"}]}],"outputs":[],"stateMutability":"nonpayable"},{"type":"function","name":"resume","inputs":[],"outputs":[],"stateMutability":"nonpayable"},{"type":"function","name":"withdrawAllETH","inputs":[],"outputs":[],"stateMutability":"nonpayable"},{"type":"function","name":"withdrawETH","inputs":[{"name":"amount","type":"uint256","internalType":"uint256"}],"outputs":[],"stateMutability":"nonpayable"},{"type":"event","name":"Callback","inputs":[{"name":"chain_id","type":"uint256","indexed":true,"internalType":"uint256"},{"name":"_contract","type":"address","indexed":true,"internalType":"address"},{"name":"gas_limit","type":"uint64","indexed":true,"internalType":"uint64"},{"name":"payload","type":"bytes","indexed":false,"internalType":"bytes"}],"anonymous":false},{"type":"event","name":"CronTriggered","inputs":[{"name":"blockNumber","type":"uint256","indexed":true,"internalType":"uint256"},{"name":"timestamp","type":"uint256","indexed":false,"internalType":"uint256"},{"name":"feedReader","type":"address","indexed":true,"internalType":"address"}],"anonymous":false},{"type":"event","name":"PriceUpdateRelayed","inputs":[{"name":"feedId","type":"bytes32","indexed":true,"internalType":"bytes32"},{"name":"destinationFeed","type":"address","indexed":true,"internalType":"address"},{"name":"destinationChainId","type":"uint64","indexed":false,"internalType":"uint64"},{"name":"roundId","type":"uint80","indexed":false,"internalType":"uint80"},{"name":"answer","type":"int256","indexed":false,"internalType":"int256"}],"anonymous":false},{"type":"event","name":"ProcessingError","inputs":[{"name":"reason","type":"string","indexed":false,"internalType":"string"},{"name":"feedId","type":"bytes32","indexed":false,"internalType":"bytes32"}],"anonymous":false}],"bytecode":{"object":"0x60e060405260405161345a38038061345a8339818101604052810190610025919061052e565b62ffffff600260016101000a81548173ffffffffffffffffffffffffffffffffffffffff021916908373ffffffffffffffffffffffffffffffffffffffff16021790555f5f6101000a81548173ffffffffffffffffffffffffffffffffffffffff021916908373ffffffffffffffffffffffffffffffffffffffff1602179055506100b862ffffff6103e360201b60201c565b6100c661043a60201b60201c565b3360035f6101000a81548173ffffffffffffffffffffffffffffffffffffffff021916908373ffffffffffffffffffffffffffffffffffffffff1602179055508460035f6101000a81548173ffffffffffffffffffffffffffffffffffffffff021916908373ffffffffffffffffffffffffffffffffffffffff1602179055508373ffffffffffffffffffffffffffffffffffffffff1660808173ffffffffffffffffffffffffffffffffffffffff16815250508267ffffffffffffffff1660a08167ffffffffffffffff168152505081600260016101000a81548173ffffffffffffffffffffffffffffffffffffffff021916908373ffffffffffffffffffffffffffffffffffffffff1602179055508060c0818152505060025f9054906101000a900460ff166103d957600260019054906101000a900473ffffffffffffffffffffffffffffffffffffffff1673ffffffffffffffffffffffffffffffffffffffff16635a6aced046600260019054906101000a900473ffffffffffffffffffffffffffffffffffffffff16847fa65f96fc951c35ead38878e0f0b7a3c744a6f5ccc1476b313353ce31712313ad807fa65f96fc951c35ead38878e0f0b7a3c744a6f5ccc1476b313353ce31712313ad6040518763ffffffff1660e01b81526004016102b9969594939291906105c3565b5f604051808303815f87803b1580156102d0575f5ffd5b505af11580156102e2573d5f5f3e3d5ffd5b50505050600260019054906101000a900473ffffffffffffffffffffffffffffffffffffffff1673ffffffffffffffffffffffffffffffffffffffff16635a6aced084867f98eacf08909732d882c28676505c67cea093bb9dea7c176b7e86c5c0a8c217ba7fa65f96fc951c35ead38878e0f0b7a3c744a6f5ccc1476b313353ce31712313ad807fa65f96fc951c35ead38878e0f0b7a3c744a6f5ccc1476b313353ce31712313ad6040518763ffffffff1660e01b81526004016103ab9695949392919061065b565b5f604051808303815f87803b1580156103c2575f5ffd5b505af11580156103d4573d5f5f3e3d5ffd5b505050505b50505050506106ba565b6001805f8373ffffffffffffffffffffffffffffffffffffffff1673ffffffffffffffffffffffffffffffffffffffff1681526020019081526020015f205f6101000a81548160ff02191690831515021790555050565b5f62ffffff3b90505f811460025f6101000a81548160ff02191690831515021790555050565b5f5ffd5b5f73ffffffffffffffffffffffffffffffffffffffff82169050919050565b5f61048d82610464565b9050919050565b61049d81610483565b81146104a7575f5ffd5b50565b5f815190506104b881610494565b92915050565b5f67ffffffffffffffff82169050919050565b6104da816104be565b81146104e4575f5ffd5b50565b5f815190506104f5816104d1565b92915050565b5f819050919050565b61050d816104fb565b8114610517575f5ffd5b50565b5f8151905061052881610504565b92915050565b5f5f5f5f5f60a0868803121561054757610546610460565b5b5f610554888289016104aa565b9550506020610565888289016104aa565b9450506040610576888289016104e7565b9350506060610587888289016104aa565b92505060806105988882890161051a565b9150509295509295909350565b6105ae816104fb565b82525050565b6105bd81610483565b82525050565b5f60c0820190506105d65f8301896105a5565b6105e360208301886105b4565b6105f060408301876105a5565b6105fd60608301866105a5565b61060a60808301856105a5565b61061760a08301846105a5565b979650505050505050565b5f819050919050565b5f61064561064061063b846104be565b610622565b6104fb565b9050919050565b6106558161062b565b82525050565b5f60c08201905061066e5f83018961064c565b61067b60208301886105b4565b61068860408301876105a5565b61069560608301866105a5565b6106a260808301856105a5565b6106af60a08301846105a5565b979650505050505050565b60805160a05160c051612d146107465f395f818161093b01528181610fbd01528181611112015261138601525f8181610536015281816108c9015281816110f101528181611445015261166801525f81816104ff01528181610598015281816109a101528181610a16015281816110d0015281816114750152818161163101526116ca0152612d145ff3fe60806040526004361061010c575f3560e01c80638cf3b8ca11610094578063a1ab234c11610063578063a1ab234c146102ea578063b742854014610314578063c290d69114610353578063c3f909d41461037b578063f14210a6146103a757610113565b80638cf3b8ca1461025457806390386bbf14610280578063933fb47514610296578063995e4b98146102c057610113565b80630d152c2c116100db5780630d152c2c146101975780635b341bce146101bf5780637a90b990146101e95780638456cb59146101ff5780638a2b2d771461021557610113565b8063022fe1eb1461011757806303ac52b31461012d578063046f7da2146101575780630ac7f5611461016d57610113565b3661011357005b5f5ffd5b348015610122575f5ffd5b5061012b6103cf565b005b348015610138575f5ffd5b50610141610608565b60405161014e9190611cfe565b60405180910390f35b348015610162575f5ffd5b5061016b61060e565b005b348015610178575f5ffd5b506101816108c7565b60405161018e9190611d39565b60405180910390f35b3480156101a2575f5ffd5b506101bd60048036038101906101b89190611d86565b6108eb565b005b3480156101ca575f5ffd5b506101d3610a14565b6040516101e09190611e0c565b60405180910390f35b3480156101f4575f5ffd5b506101fd610a38565b005b34801561020a575f5ffd5b50610213610b00565b005b348015610220575f5ffd5b5061023b60048036038101906102369190611e58565b610dbb565b60405161024b9493929190611ebf565b60405180910390f35b34801561025f575f5ffd5b50610268610dfc565b60405161027793929190611f02565b60405180910390f35b34801561028b575f5ffd5b50610294610e13565b005b3480156102a1575f5ffd5b506102aa610fb5565b6040516102b79190611cfe565b60405180910390f35b3480156102cb575f5ffd5b506102d4610fbb565b6040516102e19190611cfe565b60405180910390f35b3480156102f5575f5ffd5b506102fe610fdf565b60405161030b9190611cfe565b60405180910390f35b34801561031f575f5ffd5b5061033a60048036038101906103359190611e58565b610fe5565b60405161034a9493929190611ebf565b60405180910390f35b34801561035e575f5ffd5b5061037960048036038101906103749190611f61565b611035565b005b348015610386575f5ffd5b5061038f6110cb565b60405161039e93929190611f8c565b60405180910390f35b3480156103b2575f5ffd5b506103cd60048036038101906103c89190611f61565b61113c565b005b60035f9054906101000a900473ffffffffffffffffffffffffffffffffffffffff1673ffffffffffffffffffffffffffffffffffffffff163373ffffffffffffffffffffffffffffffffffffffff161461045e576040517f08c379a00000000000000000000000000000000000000000000000000000000081526004016104559061201b565b60405180910390fd5b5f5f6040516024016104709190611e0c565b6040516020818303038152906040527f0551cc49000000000000000000000000000000000000000000000000000000007bffffffffffffffffffffffffffffffffffffffffffffffffffffffff19166020820180517bffffffffffffffffffffffffffffffffffffffffffffffffffffffff83818316178352505050509050620f424067ffffffffffffffff167f000000000000000000000000000000000000000000000000000000000000000073ffffffffffffffffffffffffffffffffffffffff167f000000000000000000000000000000000000000000000000000000000000000067ffffffffffffffff167f8dd725fa9d6cd150017ab9e60318d40616439424e2fade9c1c58854950917dfc8460405161058e91906120a9565b60405180910390a47f000000000000000000000000000000000000000000000000000000000000000073ffffffffffffffffffffffffffffffffffffffff16437fc1d9394b193db2ade9dfa802d02e0b772d0657f6f31a34bb7d40e062cff9034b426040516105fd9190611cfe565b60405180910390a350565b60055481565b60025f9054906101000a900460ff161561065d576040517f08c379a000000000000000000000000000000000000000000000000000000000815260040161065490612113565b60405180910390fd5b60035f9054906101000a900473ffffffffffffffffffffffffffffffffffffffff1673ffffffffffffffffffffffffffffffffffffffff163373ffffffffffffffffffffffffffffffffffffffff16146106ec576040517f08c379a00000000000000000000000000000000000000000000000000000000081526004016106e39061201b565b60405180910390fd5b600360149054906101000a900460ff1661073b576040517f08c379a00000000000000000000000000000000000000000000000000000000081526004016107329061217b565b60405180910390fd5b5f6107446112db565b90505f5f90505b815181146108a957600260019054906101000a900473ffffffffffffffffffffffffffffffffffffffff1673ffffffffffffffffffffffffffffffffffffffff16635a6aced08383815181106107a4576107a3612199565b5b60200260200101515f01518484815181106107c2576107c1612199565b5b6020026020010151602001518585815181106107e1576107e0612199565b5b602002602001015160400151868681518110610800576107ff612199565b5b60200260200101516060015187878151811061081f5761081e612199565b5b60200260200101516080015188888151811061083e5761083d612199565b5b602002602001015160a001516040518763ffffffff1660e01b815260040161086b969594939291906121c6565b5f604051808303815f87803b158015610882575f5ffd5b505af1158015610894573d5f5f3e3d5ffd5b50505050806108a290612252565b905061074b565b505f600360146101000a81548160ff02191690831515021790555050565b7f000000000000000000000000000000000000000000000000000000000000000081565b60025f9054906101000a900460ff16610939576040517f08c379a0000000000000000000000000000000000000000000000000000000008152600401610930906122e3565b60405180910390fd5b7f00000000000000000000000000000000000000000000000000000000000000008160400135036109715761096c61156b565b610a11565b7f98eacf08909732d882c28676505c67cea093bb9dea7c176b7e86c5c0a8c217ba8160400135148015610a0157507f000000000000000000000000000000000000000000000000000000000000000073ffffffffffffffffffffffffffffffffffffffff168160200160208101906109e9919061232b565b73ffffffffffffffffffffffffffffffffffffffff16145b15610a1057610a0f8161173a565b5b5b50565b7f000000000000000000000000000000000000000000000000000000000000000081565b5f5f5f9054906101000a900473ffffffffffffffffffffffffffffffffffffffff1673ffffffffffffffffffffffffffffffffffffffff16639b6c56ec306040518263ffffffff1660e01b8152600401610a929190611e0c565b602060405180830381865afa158015610aad573d5f5f3e3d5ffd5b505050506040513d601f19601f82011682018060405250810190610ad1919061236a565b9050610afd5f5f9054906101000a900473ffffffffffffffffffffffffffffffffffffffff16826119f9565b50565b60025f9054906101000a900460ff1615610b4f576040517f08c379a0000000000000000000000000000000000000000000000000000000008152600401610b4690612113565b60405180910390fd5b60035f9054906101000a900473ffffffffffffffffffffffffffffffffffffffff1673ffffffffffffffffffffffffffffffffffffffff163373ffffffffffffffffffffffffffffffffffffffff1614610bde576040517f08c379a0000000000000000000000000000000000000000000000000000000008152600401610bd59061201b565b60405180910390fd5b600360149054906101000a900460ff1615610c2e576040517f08c379a0000000000000000000000000000000000000000000000000000000008152600401610c25906123df565b60405180910390fd5b5f610c376112db565b90505f5f90505b81518114610d9c57600260019054906101000a900473ffffffffffffffffffffffffffffffffffffffff1673ffffffffffffffffffffffffffffffffffffffff16632f807336838381518110610c9757610c96612199565b5b60200260200101515f0151848481518110610cb557610cb4612199565b5b602002602001015160200151858581518110610cd457610cd3612199565b5b602002602001015160400151868681518110610cf357610cf2612199565b5b602002602001015160600151878781518110610d1257610d11612199565b5b602002602001015160800151888881518110610d3157610d30612199565b5b602002602001015160a001516040518763ffffffff1660e01b8152600401610d5e969594939291906121c6565b5f604051808303815f87803b158015610d75575f5ffd5b505af1158015610d87573d5f5f3e3d5ffd5b5050505080610d9590612252565b9050610c3e565b506001600360146101000a81548160ff02191690831515021790555050565b6004602052805f5260405f205f91509050805f015f9054906101000a900469ffffffffffffffffffff16908060010154908060020154908060030154905084565b5f5f5f600554600654600754925092509250909192565b60035f9054906101000a900473ffffffffffffffffffffffffffffffffffffffff1673ffffffffffffffffffffffffffffffffffffffff163373ffffffffffffffffffffffffffffffffffffffff1614610ea2576040517f08c379a0000000000000000000000000000000000000000000000000000000008152600401610e999061201b565b60405180910390fd5b5f4790505f8111610ee8576040517f08c379a0000000000000000000000000000000000000000000000000000000008152600401610edf90612447565b60405180910390fd5b5f60035f9054906101000a900473ffffffffffffffffffffffffffffffffffffffff1673ffffffffffffffffffffffffffffffffffffffff1682604051610f2e90612492565b5f6040518083038185875af1925050503d805f8114610f68576040519150601f19603f3d011682016040523d82523d5f602084013e610f6d565b606091505b5050905080610fb1576040517f08c379a0000000000000000000000000000000000000000000000000000000008152600401610fa8906124f0565b60405180910390fd5b5050565b60075481565b7f000000000000000000000000000000000000000000000000000000000000000081565b60065481565b5f5f5f5f5f60045f8781526020019081526020015f209050805f015f9054906101000a900469ffffffffffffffffffff168160010154826002015483600301549450945094509450509193509193565b60015f3373ffffffffffffffffffffffffffffffffffffffff1673ffffffffffffffffffffffffffffffffffffffff1681526020019081526020015f205f9054906101000a900460ff166110be576040517f08c379a00000000000000000000000000000000000000000000000000000000081526004016110b590612558565b60405180910390fd5b6110c833826119f9565b50565b5f5f5f7f00000000000000000000000000000000000000000000000000000000000000007f00000000000000000000000000000000000000000000000000000000000000007f0000000000000000000000000000000000000000000000000000000000000000925092509250909192565b60035f9054906101000a900473ffffffffffffffffffffffffffffffffffffffff1673ffffffffffffffffffffffffffffffffffffffff163373ffffffffffffffffffffffffffffffffffffffff16146111cb576040517f08c379a00000000000000000000000000000000000000000000000000000000081526004016111c29061201b565b60405180910390fd5b4781111561120e576040517f08c379a0000000000000000000000000000000000000000000000000000000008152600401611205906125c0565b60405180910390fd5b5f60035f9054906101000a900473ffffffffffffffffffffffffffffffffffffffff1673ffffffffffffffffffffffffffffffffffffffff168260405161125490612492565b5f6040518083038185875af1925050503d805f811461128e576040519150601f19603f3d011682016040523d82523d5f602084013e611293565b606091505b50509050806112d7576040517f08c379a00000000000000000000000000000000000000000000000000000000081526004016112ce906124f0565b60405180910390fd5b5050565b60605f600267ffffffffffffffff8111156112f9576112f86125de565b5b60405190808252806020026020018201604052801561133257816020015b61131f611ca0565b8152602001906001900390816113175790505b5090506040518060c00160405280468152602001600260019054906101000a900473ffffffffffffffffffffffffffffffffffffffff1673ffffffffffffffffffffffffffffffffffffffff1681526020017f000000000000000000000000000000000000000000000000000000000000000081526020017fa65f96fc951c35ead38878e0f0b7a3c744a6f5ccc1476b313353ce31712313ad81526020017fa65f96fc951c35ead38878e0f0b7a3c744a6f5ccc1476b313353ce31712313ad81526020017fa65f96fc951c35ead38878e0f0b7a3c744a6f5ccc1476b313353ce31712313ad815250815f8151811061142d5761142c612199565b5b60200260200101819052506040518060c001604052807f000000000000000000000000000000000000000000000000000000000000000067ffffffffffffffff1681526020017f000000000000000000000000000000000000000000000000000000000000000073ffffffffffffffffffffffffffffffffffffffff1681526020017f98eacf08909732d882c28676505c67cea093bb9dea7c176b7e86c5c0a8c217ba81526020017fa65f96fc951c35ead38878e0f0b7a3c744a6f5ccc1476b313353ce31712313ad81526020017fa65f96fc951c35ead38878e0f0b7a3c744a6f5ccc1476b313353ce31712313ad81526020017fa65f96fc951c35ead38878e0f0b7a3c744a6f5ccc1476b313353ce31712313ad8152508160018151811061155957611558612199565b5b60200260200101819052508091505090565b436005819055504260068190555060075f81548092919061158b90612252565b91905055505f5f6040516024016115a29190611e0c565b6040516020818303038152906040527f0551cc49000000000000000000000000000000000000000000000000000000007bffffffffffffffffffffffffffffffffffffffffffffffffffffffff19166020820180517bffffffffffffffffffffffffffffffffffffffffffffffffffffffff83818316178352505050509050620f424067ffffffffffffffff167f000000000000000000000000000000000000000000000000000000000000000073ffffffffffffffffffffffffffffffffffffffff167f000000000000000000000000000000000000000000000000000000000000000067ffffffffffffffff167f8dd725fa9d6cd150017ab9e60318d40616439424e2fade9c1c58854950917dfc846040516116c091906120a9565b60405180910390a47f000000000000000000000000000000000000000000000000000000000000000073ffffffffffffffffffffffffffffffffffffffff16437fc1d9394b193db2ade9dfa802d02e0b772d0657f6f31a34bb7d40e062cff9034b4260405161172f9190611cfe565b60405180910390a350565b5f81606001355f1b90505f826080013590505f5f5f5f5f5f5f5f5f5f8c8060c001906117669190612617565b8101906117739190612867565b99509950995099509950995099509950995099505f60045f8e81526020019081526020015f2090508669ffffffffffffffffffff16815f015f9054906101000a900469ffffffffffffffffffff1669ffffffffffffffffffff161480156117e95750603c81600301546117e6919061295c565b42105b1561180057505050505050505050505050506119f6565b5f8613611850577f50af223091c8f43181d71872591a51e9c4dbb50afb38162dcc9c2aff2f16e9ef8d6040516118369190612a0e565b60405180910390a1505050505050505050505050506119f6565b5f8769ffffffffffffffffffff16036118ac577f50af223091c8f43181d71872591a51e9c4dbb50afb38162dcc9c2aff2f16e9ef8d6040516118929190612a84565b60405180910390a1505050505050505050505050506119f6565b5f8414806118c6575061012c426118c3919061295c565b84115b15611914577f50af223091c8f43181d71872591a51e9c4dbb50afb38162dcc9c2aff2f16e9ef8d6040516118fa9190612afa565b60405180910390a1505050505050505050505050506119f6565b5f73ffffffffffffffffffffffffffffffffffffffff168a73ffffffffffffffffffffffffffffffffffffffff1603611990577f50af223091c8f43181d71872591a51e9c4dbb50afb38162dcc9c2aff2f16e9ef8d6040516119769190612b70565b60405180910390a1505050505050505050505050506119f6565b86815f015f6101000a81548169ffffffffffffffffffff021916908369ffffffffffffffffffff1602179055508581600101819055508381600201819055504281600301819055506119e88b8b8f8a8a8a8a8a611b40565b505050505050505050505050505b50565b80471015611a3c576040517f08c379a0000000000000000000000000000000000000000000000000000000008152600401611a3390612be6565b60405180910390fd5b5f811115611b3c575f8273ffffffffffffffffffffffffffffffffffffffff16825f67ffffffffffffffff811115611a7757611a766125de565b5b6040519080825280601f01601f191660200182016040528015611aa95781602001600182028036833780820191505090505b50604051611ab79190612c34565b5f6040518083038185875af1925050503d805f8114611af1576040519150601f19603f3d011682016040523d82523d5f602084013e611af6565b606091505b5050905080611b3a576040517f08c379a0000000000000000000000000000000000000000000000000000000008152600401611b31906124f0565b60405180910390fd5b505b5050565b5f5f8686868686604051602401611b5c96959493929190612c4a565b6040516020818303038152906040527fdf2dabb6000000000000000000000000000000000000000000000000000000007bffffffffffffffffffffffffffffffffffffffffffffffffffffffff19166020820180517bffffffffffffffffffffffffffffffffffffffffffffffffffffffff83818316178352505050509050620f424067ffffffffffffffff168873ffffffffffffffffffffffffffffffffffffffff168a67ffffffffffffffff167f8dd725fa9d6cd150017ab9e60318d40616439424e2fade9c1c58854950917dfc84604051611c3a91906120a9565b60405180910390a48773ffffffffffffffffffffffffffffffffffffffff16877ff424653a4b7c809ac04fd6ff0c376306e61d47fdac9b8c64b0e02886655e0fc98b8989604051611c8d93929190612ca9565b60405180910390a3505050505050505050565b6040518060c001604052805f81526020015f73ffffffffffffffffffffffffffffffffffffffff1681526020015f81526020015f81526020015f81526020015f81525090565b5f819050919050565b611cf881611ce6565b82525050565b5f602082019050611d115f830184611cef565b92915050565b5f67ffffffffffffffff82169050919050565b611d3381611d17565b82525050565b5f602082019050611d4c5f830184611d2a565b92915050565b5f604051905090565b5f5ffd5b5f5ffd5b5f5ffd5b5f6101808284031215611d7d57611d7c611d63565b5b81905092915050565b5f60208284031215611d9b57611d9a611d5b565b5b5f82013567ffffffffffffffff811115611db857611db7611d5f565b5b611dc484828501611d67565b91505092915050565b5f73ffffffffffffffffffffffffffffffffffffffff82169050919050565b5f611df682611dcd565b9050919050565b611e0681611dec565b82525050565b5f602082019050611e1f5f830184611dfd565b92915050565b5f819050919050565b611e3781611e25565b8114611e41575f5ffd5b50565b5f81359050611e5281611e2e565b92915050565b5f60208284031215611e6d57611e6c611d5b565b5b5f611e7a84828501611e44565b91505092915050565b5f69ffffffffffffffffffff82169050919050565b611ea181611e83565b82525050565b5f819050919050565b611eb981611ea7565b82525050565b5f608082019050611ed25f830187611e98565b611edf6020830186611eb0565b611eec6040830185611cef565b611ef96060830184611cef565b95945050505050565b5f606082019050611f155f830186611cef565b611f226020830185611cef565b611f2f6040830184611cef565b949350505050565b611f4081611ce6565b8114611f4a575f5ffd5b50565b5f81359050611f5b81611f37565b92915050565b5f60208284031215611f7657611f75611d5b565b5b5f611f8384828501611f4d565b91505092915050565b5f606082019050611f9f5f830186611dfd565b611fac6020830185611d2a565b611fb96040830184611cef565b949350505050565b5f82825260208201905092915050565b7f556e617574686f72697a656400000000000000000000000000000000000000005f82015250565b5f612005600c83611fc1565b915061201082611fd1565b602082019050919050565b5f6020820190508181035f83015261203281611ff9565b9050919050565b5f81519050919050565b5f82825260208201905092915050565b8281835e5f83830152505050565b5f601f19601f8301169050919050565b5f61207b82612039565b6120858185612043565b9350612095818560208601612053565b61209e81612061565b840191505092915050565b5f6020820190508181035f8301526120c18184612071565b905092915050565b7f5265616374697665204e6574776f726b206f6e6c7900000000000000000000005f82015250565b5f6120fd601583611fc1565b9150612108826120c9565b602082019050919050565b5f6020820190508181035f83015261212a816120f1565b9050919050565b7f4e6f7420706175736564000000000000000000000000000000000000000000005f82015250565b5f612165600a83611fc1565b915061217082612131565b602082019050919050565b5f6020820190508181035f83015261219281612159565b9050919050565b7f4e487b71000000000000000000000000000000000000000000000000000000005f52603260045260245ffd5b5f60c0820190506121d95f830189611cef565b6121e66020830188611dfd565b6121f36040830187611cef565b6122006060830186611cef565b61220d6080830185611cef565b61221a60a0830184611cef565b979650505050505050565b7f4e487b71000000000000000000000000000000000000000000000000000000005f52601160045260245ffd5b5f61225c82611ce6565b91507fffffffffffffffffffffffffffffffffffffffffffffffffffffffffffffffff820361228e5761228d612225565b5b600182019050919050565b7f564d206f6e6c79000000000000000000000000000000000000000000000000005f82015250565b5f6122cd600783611fc1565b91506122d882612299565b602082019050919050565b5f6020820190508181035f8301526122fa816122c1565b9050919050565b61230a81611dec565b8114612314575f5ffd5b50565b5f8135905061232581612301565b92915050565b5f602082840312156123405761233f611d5b565b5b5f61234d84828501612317565b91505092915050565b5f8151905061236481611f37565b92915050565b5f6020828403121561237f5761237e611d5b565b5b5f61238c84828501612356565b91505092915050565b7f416c7265616479207061757365640000000000000000000000000000000000005f82015250565b5f6123c9600e83611fc1565b91506123d482612395565b602082019050919050565b5f6020820190508181035f8301526123f6816123bd565b9050919050565b7f4e6f2045544820746f20776974686472617700000000000000000000000000005f82015250565b5f612431601283611fc1565b915061243c826123fd565b602082019050919050565b5f6020820190508181035f83015261245e81612425565b9050919050565b5f81905092915050565b50565b5f61247d5f83612465565b91506124888261246f565b5f82019050919050565b5f61249c82612472565b9150819050919050565b7f5472616e73666572206661696c656400000000000000000000000000000000005f82015250565b5f6124da600f83611fc1565b91506124e5826124a6565b602082019050919050565b5f6020820190508181035f830152612507816124ce565b9050919050565b7f417574686f72697a65642073656e646572206f6e6c79000000000000000000005f82015250565b5f612542601683611fc1565b915061254d8261250e565b602082019050919050565b5f6020820190508181035f83015261256f81612536565b9050919050565b7f496e73756666696369656e742062616c616e63650000000000000000000000005f82015250565b5f6125aa601483611fc1565b91506125b582612576565b602082019050919050565b5f6020820190508181035f8301526125d78161259e565b9050919050565b7f4e487b71000000000000000000000000000000000000000000000000000000005f52604160045260245ffd5b5f5ffd5b5f5ffd5b5f5ffd5b5f5f833560016020038436030381126126335761263261260b565b5b80840192508235915067ffffffffffffffff8211156126555761265461260f565b5b60208301925060018202360383131561267157612670612613565b5b509250929050565b61268281611d17565b811461268c575f5ffd5b50565b5f8135905061269d81612679565b92915050565b5f6126ad82611dcd565b9050919050565b6126bd816126a3565b81146126c7575f5ffd5b50565b5f813590506126d8816126b4565b92915050565b5f60ff82169050919050565b6126f3816126de565b81146126fd575f5ffd5b50565b5f8135905061270e816126ea565b92915050565b5f5ffd5b5f5ffd5b61272582612061565b810181811067ffffffffffffffff82111715612744576127436125de565b5b80604052505050565b5f612756611d52565b9050612762828261271c565b919050565b5f67ffffffffffffffff821115612781576127806125de565b5b61278a82612061565b9050602081019050919050565b828183375f83830152505050565b5f6127b76127b284612767565b61274d565b9050828152602081018484840111156127d3576127d2612718565b5b6127de848285612797565b509392505050565b5f82601f8301126127fa576127f9612714565b5b813561280a8482602086016127a5565b91505092915050565b61281c81611e83565b8114612826575f5ffd5b50565b5f8135905061283781612813565b92915050565b61284681611ea7565b8114612850575f5ffd5b50565b5f813590506128618161283d565b92915050565b5f5f5f5f5f5f5f5f5f5f6101408b8d03121561288657612885611d5b565b5b5f6128938d828e0161268f565b9a505060206128a48d828e016126ca565b99505060406128b58d828e01612700565b98505060608b013567ffffffffffffffff8111156128d6576128d5611d5f565b5b6128e28d828e016127e6565b97505060806128f38d828e01612829565b96505060a06129048d828e01612853565b95505060c06129158d828e01611f4d565b94505060e06129268d828e01611f4d565b9350506101006129388d828e01612829565b92505061012061294a8d828e01611f4d565b9150509295989b9194979a5092959850565b5f61296682611ce6565b915061297183611ce6565b925082820190508082111561298957612988612225565b5b92915050565b7f496e76616c69642070726963653a206e6f6e2d706f73697469766520616e73775f8201527f6572000000000000000000000000000000000000000000000000000000000000602082015250565b5f6129e9602283611fc1565b91506129f48261298f565b604082019050919050565b612a0881611e25565b82525050565b5f6040820190508181035f830152612a25816129dd565b9050612a3460208301846129ff565b92915050565b7f496e76616c696420726f756e64204944000000000000000000000000000000005f82015250565b5f612a6e601083611fc1565b9150612a7982612a3a565b602082019050919050565b5f6040820190508181035f830152612a9b81612a62565b9050612aaa60208301846129ff565b92915050565b7f496e76616c69642074696d657374616d700000000000000000000000000000005f82015250565b5f612ae4601183611fc1565b9150612aef82612ab0565b602082019050919050565b5f6040820190508181035f830152612b1181612ad8565b9050612b2060208301846129ff565b92915050565b7f496e76616c69642064657374696e6174696f6e2070726f7879000000000000005f82015250565b5f612b5a601983611fc1565b9150612b6582612b26565b602082019050919050565b5f6040820190508181035f830152612b8781612b4e565b9050612b9660208301846129ff565b92915050565b7f496e73756666696369656e742066756e647300000000000000000000000000005f82015250565b5f612bd0601283611fc1565b9150612bdb82612b9c565b602082019050919050565b5f6020820190508181035f830152612bfd81612bc4565b9050919050565b5f612c0e82612039565b612c188185612465565b9350612c28818560208601612053565b80840191505092915050565b5f612c3f8284612c04565b915081905092915050565b5f60c082019050612c5d5f830189611dfd565b612c6a6020830188611e98565b612c776040830187611eb0565b612c846060830186611cef565b612c916080830185611cef565b612c9e60a0830184611e98565b979650505050505050565b5f606082019050612cbc5f830186611d2a565b612cc96020830185611e98565b612cd66040830184611eb0565b94935050505056fea2646970667358221220b7b65ef27e4c145996bd2bf9fe092a6eafc953b61b73f52b4f8739628952393864736f6c634300081c0033","linkReferences":{}},"methodIdentifiers":{"CRON_TOPIC()":"995e4b98","coverDebt()":"7a90b990","cronExecutionCount()":"933fb475","feedReader()":"5b341bce","getConfig()":"c3f909d4","getLastCronInfo()":"8cf3b8ca","getLastPriceRecord(bytes32)":"b7428540","lastCronBlock()":"03ac52b3","lastCronTimestamp()":"a1ab234c","manualTrigger()":"022fe1eb","originChainId()":"0ac7f561","pause()":"8456cb59","pay(uint256)":"c290d691","priceRecords(bytes32)":"8a2b2d77","react((uint256,address,uint256,uint256,uint256,uint256,bytes,uint256,uint256,uint256,uint256,uint256))":"0d152c2c","resume()":"046f7da2","withdrawAllETH()":"90386bbf","withdrawETH(uint256)":"f14210a6"},"id":8}