{"abi":[{"type":"constructor","inputs":[{"name":"_callback_sender","type":"address","internalType":"address"}],"stateMutability":"nonpayable"},{"type":"receive","stateMutability":"payable"},{"type":"function","name":"DOMAIN_SEPARATOR","inputs":[],"outputs":[{"name":"","type":"bytes32","internalType":"bytes32"}],"stateMutability":"view"},{"type":"function","name":"coverDebt","inputs":[],"outputs":[],"stateMutability":"nonpayable"},{"type":"function","name":"decimals","inputs":[],"outputs":[{"name":"","type":"uint8","internalType":"uint8"}],"stateMutability":"view"},{"type":"function","name":"description","inputs":[],"outputs":[{"name":"","type":"string","internalType":"string"}],"stateMutability":"view"},{"type":"function","name":"emergencyUpdate","inputs":[{"name":"roundId","type":"uint80","internalType":"uint80"},{"name":"answer","type":"int256","internalType":"int256"},{"name":"startedAt","type":"uint256","internalType":"uint256"},{"name":"updatedAt","type":"uint256","internalType":"uint256"},{"name":"answeredInRound","type":"uint80","internalType":"uint80"}],"outputs":[],"stateMutability":"nonpayable"},{"type":"function","name":"getAllRoundIds","inputs":[],"outputs":[{"name":"","type":"uint80[]","internalType":"uint80[]"}],"stateMutability":"view"},{"type":"function","name":"getDataAge","inputs":[],"outputs":[{"name":"","type":"uint256","internalType":"uint256"}],"stateMutability":"view"},{"type":"function","name":"getRoundData","inputs":[{"name":"_roundId","type":"uint80","internalType":"uint80"}],"outputs":[{"name":"roundId","type":"uint80","internalType":"uint80"},{"name":"answer","type":"int256","internalType":"int256"},{"name":"startedAt","type":"uint256","internalType":"uint256"},{"name":"updatedAt","type":"uint256","internalType":"uint256"},{"name":"answeredInRound","type":"uint80","internalType":"uint80"}],"stateMutability":"view"},{"type":"function","name":"getSourceInfo","inputs":[],"outputs":[{"name":"aggregator","type":"address","internalType":"address"},{"name":"chainId","type":"uint64","internalType":"uint64"}],"stateMutability":"view"},{"type":"function","name":"getTotalRounds","inputs":[],"outputs":[{"name":"","type":"uint256","internalType":"uint256"}],"stateMutability":"view"},{"type":"function","name":"hasData","inputs":[],"outputs":[{"name":"","type":"bool","internalType":"bool"}],"stateMutability":"view"},{"type":"function","name":"initialize","inputs":[{"name":"sourceAggregator","type":"address","internalType":"address"},{"name":"sourceChainId","type":"uint64","internalType":"uint64"},{"name":"_decimals","type":"uint8","internalType":"uint8"},{"name":"_description","type":"string","internalType":"string"}],"outputs":[],"stateMutability":"nonpayable"},{"type":"function","name":"latestRoundData","inputs":[],"outputs":[{"name":"roundId","type":"uint80","internalType":"uint80"},{"name":"answer","type":"int256","internalType":"int256"},{"name":"startedAt","type":"uint256","internalType":"uint256"},{"name":"updatedAt","type":"uint256","internalType":"uint256"},{"name":"answeredInRound","type":"uint80","internalType":"uint80"}],"stateMutability":"view"},{"type":"function","name":"pay","inputs":[{"name":"amount","type":"uint256","internalType":"uint256"}],"outputs":[],"stateMutability":"nonpayable"},{"type":"function","name":"transferOwnership","inputs":[{"name":"newOwner","type":"address","internalType":"address"}],"outputs":[],"stateMutability":"nonpayable"},{"type":"function","name":"updatePrice","inputs":[{"name":"","type":"address","internalType":"address"},{"name":"roundId","type":"uint80","internalType":"uint80"},{"name":"answer","type":"int256","internalType":"int256"},{"name":"startedAt","type":"uint256","internalType":"uint256"},{"name":"updatedAt","type":"uint256","internalType":"uint256"},{"name":"answeredInRound","type":"uint80","internalType":"uint80"}],"outputs":[],"stateMutability":"nonpayable"},{"type":"function","name":"updatePriceBatch","inputs":[{"name":"roundIds","type":"uint80[]","internalType":"uint80[]"},{"name":"answers","type":"int256[]","internalType":"int256[]"},{"name":"startedAts","type":"uint256[]","internalType":"uint256[]"},{"name":"updatedAts","type":"uint256[]","internalType":"uint256[]"},{"name":"answeredInRounds","type":"uint80[]","internalType":"uint80[]"}],"outputs":[],"stateMutability":"nonpayable"},{"type":"function","name":"version","inputs":[],"outputs":[{"name":"","type":"uint256","internalType":"uint256"}],"stateMutability":"view"},{"type":"event","name":"MetadataInitialized","inputs":[{"name":"sourceAggregator","type":"address","indexed":true,"internalType":"address"},{"name":"sourceChainId","type":"uint64","indexed":false,"internalType":"uint64"},{"name":"decimals","type":"uint8","indexed":false,"internalType":"uint8"},{"name":"description","type":"string","indexed":false,"internalType":"string"}],"anonymous":false},{"type":"event","name":"OwnershipTransferred","inputs":[{"name":"previous","type":"address","indexed":true,"internalType":"address"},{"name":"current","type":"address","indexed":true,"internalType":"address"}],"anonymous":false},{"type":"event","name":"PriceUpdated","inputs":[{"name":"roundId","type":"uint80","indexed":true,"internalType":"uint80"},{"name":"answer","type":"int256","indexed":false,"internalType":"int256"},{"name":"updatedAt","type":"uint256","indexed":false,"internalType":"uint256"},{"name":"updater","type":"address","indexed":true,"internalType":"address"}],"anonymous":false},{"type":"error","name":"AlreadyInitialized","inputs":[]},{"type":"error","name":"InvalidAddress","inputs":[]},{"type":"error","name":"InvalidAnswer","inputs":[{"name":"answer","type":"int256","internalType":"int256"}]},{"type":"error","name":"NotInitialized","inputs":[]},{"type":"error","name":"RoundNotFound","inputs":[{"name":"roundId","type":"uint80","internalType":"uint80"}]},{"type":"error","name":"RoundNotIncreasing","inputs":[{"name":"current","type":"uint80","internalType":"uint80"},{"name":"provided","type":"uint80","internalType":"uint80"}]},{"type":"error","name":"Unauthorized","inputs":[]}],"bytecode":{"object":"0x60a060405234801561000f575f5ffd5b50604051612c6f380380612c6f83398181016040528101906100319190610311565b803360025f6101000a81548173ffffffffffffffffffffffffffffffffffffffff021916908373ffffffffffffffffffffffffffffffffffffffff160217905550805f5f6101000a81548173ffffffffffffffffffffffffffffffffffffffff021916908373ffffffffffffffffffffffffffffffffffffffff1602179055506100c0816101a960201b60201c565b506100d533600e61020060201b90919060201c565b7f8b73c3c69bb8fe3d512ecc4cf759cc79239f7b179b0ffacaa9a75d522b39400f6040518060400160405280600a81526020017f466565644d6972726f7200000000000000000000000000000000000000000000815250805190602001206040518060400160405280600581526020017f312e302e3000000000000000000000000000000000000000000000000000000081525080519060200120463060405160200161018695949392919061037b565b604051602081830303815290604052805190602001206080818152505050610444565b6001805f8373ffffffffffffffffffffffffffffffffffffffff1673ffffffffffffffffffffffffffffffffffffffff1681526020019081526020015f205f6101000a81548160ff02191690831515021790555050565b5f73ffffffffffffffffffffffffffffffffffffffff168173ffffffffffffffffffffffffffffffffffffffff160361026e576040517f08c379a000000000000000000000000000000000000000000000000000000000815260040161026590610426565b60405180910390fd5b80825f015f6101000a81548173ffffffffffffffffffffffffffffffffffffffff021916908373ffffffffffffffffffffffffffffffffffffffff1602179055505050565b5f5ffd5b5f73ffffffffffffffffffffffffffffffffffffffff82169050919050565b5f6102e0826102b7565b9050919050565b6102f0816102d6565b81146102fa575f5ffd5b50565b5f8151905061030b816102e7565b92915050565b5f60208284031215610326576103256102b3565b5b5f610333848285016102fd565b91505092915050565b5f819050919050565b61034e8161033c565b82525050565b5f819050919050565b61036681610354565b82525050565b610375816102d6565b82525050565b5f60a08201905061038e5f830188610345565b61039b6020830187610345565b6103a86040830186610345565b6103b5606083018561035d565b6103c2608083018461036c565b9695505050505050565b5f82825260208201905092915050565b7f496e76616c6964206f776e6572000000000000000000000000000000000000005f82015250565b5f610410600d836103cc565b915061041b826103dc565b602082019050919050565b5f6020820190508181035f83015261043d81610404565b9050919050565b60805161281361045c5f395f61042801526128135ff3fe60806040526004361061010c575f3560e01c8063a135c3e811610094578063df2dabb611610063578063df2dabb614610335578063e0ed6e9b1461035d578063e800941714610385578063f2fde38b146103b0578063feaf968c146103d857610113565b8063a135c3e814610291578063ad10c274146102bb578063c290d691146102e5578063cfd8b6bf1461030d57610113565b806363fc38cf116100db57806363fc38cf146101bf5780637284e416146101e95780637a90b9901461021357806398fde814146102295780639a6fc8f51461025157610113565b80631ad1ec2214610117578063313ce567146101415780633644e5151461016b57806354fd4d501461019557610113565b3661011357005b5f5ffd5b348015610122575f5ffd5b5061012b610406565b60405161013891906116e1565b60405180910390f35b34801561014c575f5ffd5b50610155610416565b6040516101629190611715565b60405180910390f35b348015610176575f5ffd5b5061017f610426565b60405161018c9190611746565b60405180910390f35b3480156101a0575f5ffd5b506101a961044a565b6040516101b691906116e1565b60405180910390f35b3480156101ca575f5ffd5b506101d361044f565b6040516101e09190611779565b60405180910390f35b3480156101f4575f5ffd5b506101fd61045f565b60405161020a9190611802565b60405180910390f35b34801561021e575f5ffd5b50610227610470565b005b348015610234575f5ffd5b5061024f600480360381019061024a919061194c565b610538565b005b34801561025c575f5ffd5b5061027760048036038101906102729190611a0f565b610604565b604051610288959493929190611a61565b60405180910390f35b34801561029c575f5ffd5b506102a5610630565b6040516102b29190611b69565b60405180910390f35b3480156102c6575f5ffd5b506102cf610641565b6040516102dc91906116e1565b60405180910390f35b3480156102f0575f5ffd5b5061030b60048036038101906103069190611bb3565b610651565b005b348015610318575f5ffd5b50610333600480360381019061032e9190611cdd565b6106e7565b005b348015610340575f5ffd5b5061035b60048036038101906103569190611e1e565b610901565b005b348015610368575f5ffd5b50610383600480360381019061037e9190611ea7565b61098c565b005b348015610390575f5ffd5b50610399610a2a565b6040516103a7929190611f3c565b60405180910390f35b3480156103bb575f5ffd5b506103d660048036038101906103d19190611f63565b610a3e565b005b3480156103e3575f5ffd5b506103ec610a69565b6040516103fd959493929190611a61565b60405180910390f35b5f6104116003610a89565b905090565b5f610421600b610a96565b905090565b7f000000000000000000000000000000000000000000000000000000000000000081565b600181565b5f61045a6003610ab8565b905090565b606061046b600b610ad4565b905090565b5f5f5f9054906101000a900473ffffffffffffffffffffffffffffffffffffffff1673ffffffffffffffffffffffffffffffffffffffff16639b6c56ec306040518263ffffffff1660e01b81526004016104ca9190611f8e565b602060405180830381865afa1580156104e5573d5f5f3e3d5ffd5b505050506040513d601f19601f820116820180604052508101906105099190611fbb565b90506105355f5f9054906101000a900473ffffffffffffffffffffffffffffffffffffffff1682610b71565b50565b61054c33600e610cb890919063ffffffff16565b6105a985858585858080601f0160208091040260200160405190810160405280939291908181526020018383808284375f81840152601f19601f82011690508083019250505050505050600b610d4390949392919063ffffffff16565b8473ffffffffffffffffffffffffffffffffffffffff167f1de4d28fc4704aa54920e2ca77e3fe7812d98926e326edea2bcb7666d9ab456d858585856040516105f59493929190612020565b60405180910390a25050505050565b5f5f5f5f5f61061d866003610ef890919063ffffffff16565b9450945094509450945091939590929450565b606061063c600361104f565b905090565b5f61064c60036110e0565b905090565b60015f3373ffffffffffffffffffffffffffffffffffffffff1673ffffffffffffffffffffffffffffffffffffffff1681526020019081526020015f205f9054906101000a900460ff166106da576040517f08c379a00000000000000000000000000000000000000000000000000000000081526004016106d1906120a8565b60405180910390fd5b6106e43382610b71565b50565b878790508a8a90501480156107015750858590508a8a9050145b80156107125750838390508a8a9050145b80156107235750818190508a8a9050145b610762576040517f08c379a000000000000000000000000000000000000000000000000000000000815260040161075990612110565b60405180910390fd5b61076c600b61113b565b5f5f90505b8a8a90508110156108f4576108318b8b838181106107925761079161212e565b5b90506020020160208101906107a79190611a0f565b8a8a848181106107ba576107b961212e565b5b905060200201358989858181106107d4576107d361212e565b5b905060200201358888868181106107ee576107ed61212e565b5b905060200201358787878181106108085761080761212e565b5b905060200201602081019061081d9190611a0f565b60036111859095949392919063ffffffff16565b3373ffffffffffffffffffffffffffffffffffffffff168b8b8381811061085b5761085a61212e565b5b90506020020160208101906108709190611a0f565b69ffffffffffffffffffff167fc55ba461e0c92000ad10f5e4c13bc371f100bed0e2c38b339e541aaf5ff5239c8b8b858181106108b0576108af61212e565b5b905060200201358888868181106108ca576108c961212e565b5b905060200201356040516108df92919061215b565b60405180910390a38080600101915050610771565b5050505050505050505050565b61090b600b61113b565b610927858585858560036111859095949392919063ffffffff16565b3373ffffffffffffffffffffffffffffffffffffffff168569ffffffffffffffffffff167fc55ba461e0c92000ad10f5e4c13bc371f100bed0e2c38b339e541aaf5ff5239c868560405161097c92919061215b565b60405180910390a3505050505050565b6109a033600e610cb890919063ffffffff16565b6109aa600b61113b565b6109c6858585858560036111859095949392919063ffffffff16565b3373ffffffffffffffffffffffffffffffffffffffff168569ffffffffffffffffffff167fc55ba461e0c92000ad10f5e4c13bc371f100bed0e2c38b339e541aaf5ff5239c8685604051610a1b92919061215b565b60405180910390a35050505050565b5f5f610a36600b611498565b915091509091565b610a5233600e610cb890919063ffffffff16565b610a6681600e6114e790919063ffffffff16565b50565b5f5f5f5f5f610a786003611612565b945094509450945094509091929394565b5f81600701549050919050565b5f610aa08261113b565b815f01601c9054906101000a900460ff169050919050565b5f815f01600401600a9054906101000a900460ff169050919050565b6060610adf8261113b565b816001018054610aee906121af565b80601f0160208091040260200160405190810160405280929190818152602001828054610b1a906121af565b8015610b655780601f10610b3c57610100808354040283529160200191610b65565b820191905f5260205f20905b815481529060010190602001808311610b4857829003601f168201915b50505050509050919050565b80471015610bb4576040517f08c379a0000000000000000000000000000000000000000000000000000000008152600401610bab90612229565b60405180910390fd5b5f811115610cb4575f8273ffffffffffffffffffffffffffffffffffffffff16825f67ffffffffffffffff811115610bef57610bee612247565b5b6040519080825280601f01601f191660200182016040528015610c215781602001600182028036833780820191505090505b50604051610c2f91906122b8565b5f6040518083038185875af1925050503d805f8114610c69576040519150601f19603f3d011682016040523d82523d5f602084013e610c6e565b606091505b5050905080610cb2576040517f08c379a0000000000000000000000000000000000000000000000000000000008152600401610ca990612318565b60405180910390fd5b505b5050565b815f015f9054906101000a900473ffffffffffffffffffffffffffffffffffffffff1673ffffffffffffffffffffffffffffffffffffffff168173ffffffffffffffffffffffffffffffffffffffff1614610d3f576040517f82b4290000000000000000000000000000000000000000000000000000000000815260040160405180910390fd5b5050565b846002015f9054906101000a900460ff1615610d8b576040517f0dc149f000000000000000000000000000000000000000000000000000000000815260040160405180910390fd5b5f73ffffffffffffffffffffffffffffffffffffffff168473ffffffffffffffffffffffffffffffffffffffff1603610df9576040517f08c379a0000000000000000000000000000000000000000000000000000000008152600401610df090612380565b60405180910390fd5b5f815111610e3c576040517f08c379a0000000000000000000000000000000000000000000000000000000008152600401610e33906123e8565b60405180910390fd5b83855f015f6101000a81548173ffffffffffffffffffffffffffffffffffffffff021916908373ffffffffffffffffffffffffffffffffffffffff16021790555082855f0160146101000a81548167ffffffffffffffff021916908367ffffffffffffffff16021790555081855f01601c6101000a81548160ff021916908360ff16021790555080856001019081610ed491906125a6565b506001856002015f6101000a81548160ff0219169083151502179055505050505050565b5f5f5f5f5f5f876005015f8869ffffffffffffffffffff1669ffffffffffffffffffff1681526020019081526020015f206040518060c00160405290815f82015f9054906101000a900469ffffffffffffffffffff1669ffffffffffffffffffff1669ffffffffffffffffffff168152602001600182015481526020016002820154815260200160038201548152602001600482015f9054906101000a900469ffffffffffffffffffff1669ffffffffffffffffffff1669ffffffffffffffffffff16815260200160048201600a9054906101000a900460ff16151515158152505090508060a0015161102257866040517fd7ea22710000000000000000000000000000000000000000000000000000000081526004016110199190612675565b60405180910390fd5b805f0151816020015182604001518360600151846080015195509550955095509550509295509295909350565b6060816006018054806020026020016040519081016040528092919081815260200182805480156110d457602002820191905f5260205f20905f905b82829054906101000a900469ffffffffffffffffffff1669ffffffffffffffffffff16815260200190600a019060208260090104928301926001038202915080841161108b5790505b50505050509050919050565b5f815f01600401600a9054906101000a900460ff16611121577fffffffffffffffffffffffffffffffffffffffffffffffffffffffffffffffff9050611136565b815f01600301544261113391906126bb565b90505b919050565b806002015f9054906101000a900460ff16611182576040517f87138d5c00000000000000000000000000000000000000000000000000000000815260040160405180910390fd5b50565b855f015f015f9054906101000a900469ffffffffffffffffffff1669ffffffffffffffffffff168569ffffffffffffffffffff161161121757855f015f015f9054906101000a900469ffffffffffffffffffff16856040517fa6fa4d5500000000000000000000000000000000000000000000000000000000815260040161120e9291906126ee565b60405180910390fd5b5f841361125b57836040517f13c9e2920000000000000000000000000000000000000000000000000000000081526004016112529190612715565b60405180910390fd5b5f6040518060c001604052808769ffffffffffffffffffff1681526020018681526020018581526020018481526020018369ffffffffffffffffffff16815260200160011515815250905080875f015f820151815f015f6101000a81548169ffffffffffffffffffff021916908369ffffffffffffffffffff1602179055506020820151816001015560408201518160020155606082015181600301556080820151816004015f6101000a81548169ffffffffffffffffffff021916908369ffffffffffffffffffff16021790555060a082015181600401600a6101000a81548160ff02191690831515021790555090505080876005015f8869ffffffffffffffffffff1669ffffffffffffffffffff1681526020019081526020015f205f820151815f015f6101000a81548169ffffffffffffffffffff021916908369ffffffffffffffffffff1602179055506020820151816001015560408201518160020155606082015181600301556080820151816004015f6101000a81548169ffffffffffffffffffff021916908369ffffffffffffffffffff16021790555060a082015181600401600a6101000a81548160ff0219169083151502179055509050508660060186908060018154018082558091505060019003905f5260205f209060039182820401919006600a029091909190916101000a81548169ffffffffffffffffffff021916908369ffffffffffffffffffff160217905550866007015f81548092919061148a9061272e565b919050555050505050505050565b5f5f6114a38361113b565b825f015f9054906101000a900473ffffffffffffffffffffffffffffffffffffffff16835f0160149054906101000a900467ffffffffffffffff1691509150915091565b5f73ffffffffffffffffffffffffffffffffffffffff168173ffffffffffffffffffffffffffffffffffffffff160361154c576040517fe6c4247b00000000000000000000000000000000000000000000000000000000815260040160405180910390fd5b5f825f015f9054906101000a900473ffffffffffffffffffffffffffffffffffffffff16905081835f015f6101000a81548173ffffffffffffffffffffffffffffffffffffffff021916908373ffffffffffffffffffffffffffffffffffffffff1602179055508173ffffffffffffffffffffffffffffffffffffffff168173ffffffffffffffffffffffffffffffffffffffff167f8be0079c531659141344cd1fd0a4f28419497f9722a3daafe3b4186f6b6457e060405160405180910390a3505050565b5f5f5f5f5f855f01600401600a9054906101000a900460ff1661166a576040517f08c379a0000000000000000000000000000000000000000000000000000000008152600401611661906127bf565b60405180910390fd5b855f015f015f9054906101000a900469ffffffffffffffffffff16865f0160010154875f0160020154885f0160030154895f016004015f9054906101000a900469ffffffffffffffffffff169450945094509450945091939590929450565b5f819050919050565b6116db816116c9565b82525050565b5f6020820190506116f45f8301846116d2565b92915050565b5f60ff82169050919050565b61170f816116fa565b82525050565b5f6020820190506117285f830184611706565b92915050565b5f819050919050565b6117408161172e565b82525050565b5f6020820190506117595f830184611737565b92915050565b5f8115159050919050565b6117738161175f565b82525050565b5f60208201905061178c5f83018461176a565b92915050565b5f81519050919050565b5f82825260208201905092915050565b8281835e5f83830152505050565b5f601f19601f8301169050919050565b5f6117d482611792565b6117de818561179c565b93506117ee8185602086016117ac565b6117f7816117ba565b840191505092915050565b5f6020820190508181035f83015261181a81846117ca565b905092915050565b5f5ffd5b5f5ffd5b5f73ffffffffffffffffffffffffffffffffffffffff82169050919050565b5f6118538261182a565b9050919050565b61186381611849565b811461186d575f5ffd5b50565b5f8135905061187e8161185a565b92915050565b5f67ffffffffffffffff82169050919050565b6118a081611884565b81146118aa575f5ffd5b50565b5f813590506118bb81611897565b92915050565b6118ca816116fa565b81146118d4575f5ffd5b50565b5f813590506118e5816118c1565b92915050565b5f5ffd5b5f5ffd5b5f5ffd5b5f5f83601f84011261190c5761190b6118eb565b5b8235905067ffffffffffffffff811115611929576119286118ef565b5b602083019150836001820283011115611945576119446118f3565b5b9250929050565b5f5f5f5f5f6080868803121561196557611964611822565b5b5f61197288828901611870565b9550506020611983888289016118ad565b9450506040611994888289016118d7565b935050606086013567ffffffffffffffff8111156119b5576119b4611826565b5b6119c1888289016118f7565b92509250509295509295909350565b5f69ffffffffffffffffffff82169050919050565b6119ee816119d0565b81146119f8575f5ffd5b50565b5f81359050611a09816119e5565b92915050565b5f60208284031215611a2457611a23611822565b5b5f611a31848285016119fb565b91505092915050565b611a43816119d0565b82525050565b5f819050919050565b611a5b81611a49565b82525050565b5f60a082019050611a745f830188611a3a565b611a816020830187611a52565b611a8e60408301866116d2565b611a9b60608301856116d2565b611aa86080830184611a3a565b9695505050505050565b5f81519050919050565b5f82825260208201905092915050565b5f819050602082019050919050565b611ae4816119d0565b82525050565b5f611af58383611adb565b60208301905092915050565b5f602082019050919050565b5f611b1782611ab2565b611b218185611abc565b9350611b2c83611acc565b805f5b83811015611b5c578151611b438882611aea565b9750611b4e83611b01565b925050600181019050611b2f565b5085935050505092915050565b5f6020820190508181035f830152611b818184611b0d565b905092915050565b611b92816116c9565b8114611b9c575f5ffd5b50565b5f81359050611bad81611b89565b92915050565b5f60208284031215611bc857611bc7611822565b5b5f611bd584828501611b9f565b91505092915050565b5f5f83601f840112611bf357611bf26118eb565b5b8235905067ffffffffffffffff811115611c1057611c0f6118ef565b5b602083019150836020820283011115611c2c57611c2b6118f3565b5b9250929050565b5f5f83601f840112611c4857611c476118eb565b5b8235905067ffffffffffffffff811115611c6557611c646118ef565b5b602083019150836020820283011115611c8157611c806118f3565b5b9250929050565b5f5f83601f840112611c9d57611c9c6118eb565b5b8235905067ffffffffffffffff811115611cba57611cb96118ef565b5b602083019150836020820283011115611cd657611cd56118f3565b5b9250929050565b5f5f5f5f5f5f5f5f5f5f60a08b8d031215611cfb57611cfa611822565b5b5f8b013567ffffffffffffffff811115611d1857611d17611826565b5b611d248d828e01611bde565b9a509a505060208b013567ffffffffffffffff811115611d4757611d46611826565b5b611d538d828e01611c33565b985098505060408b013567ffffffffffffffff811115611d7657611d75611826565b5b611d828d828e01611c88565b965096505060608b013567ffffffffffffffff811115611da557611da4611826565b5b611db18d828e01611c88565b945094505060808b013567ffffffffffffffff811115611dd457611dd3611826565b5b611de08d828e01611bde565b92509250509295989b9194979a5092959850565b611dfd81611a49565b8114611e07575f5ffd5b50565b5f81359050611e1881611df4565b92915050565b5f5f5f5f5f5f60c08789031215611e3857611e37611822565b5b5f611e4589828a01611870565b9650506020611e5689828a016119fb565b9550506040611e6789828a01611e0a565b9450506060611e7889828a01611b9f565b9350506080611e8989828a01611b9f565b92505060a0611e9a89828a016119fb565b9150509295509295509295565b5f5f5f5f5f60a08688031215611ec057611ebf611822565b5b5f611ecd888289016119fb565b9550506020611ede88828901611e0a565b9450506040611eef88828901611b9f565b9350506060611f0088828901611b9f565b9250506080611f11888289016119fb565b9150509295509295909350565b611f2781611849565b82525050565b611f3681611884565b82525050565b5f604082019050611f4f5f830185611f1e565b611f5c6020830184611f2d565b9392505050565b5f60208284031215611f7857611f77611822565b5b5f611f8584828501611870565b91505092915050565b5f602082019050611fa15f830184611f1e565b92915050565b5f81519050611fb581611b89565b92915050565b5f60208284031215611fd057611fcf611822565b5b5f611fdd84828501611fa7565b91505092915050565b828183375f83830152505050565b5f611fff838561179c565b935061200c838584611fe6565b612015836117ba565b840190509392505050565b5f6060820190506120335f830187611f2d565b6120406020830186611706565b8181036040830152612053818486611ff4565b905095945050505050565b7f417574686f72697a65642073656e646572206f6e6c79000000000000000000005f82015250565b5f61209260168361179c565b915061209d8261205e565b602082019050919050565b5f6020820190508181035f8301526120bf81612086565b9050919050565b7f4c656e677468206d69736d6174636800000000000000000000000000000000005f82015250565b5f6120fa600f8361179c565b9150612105826120c6565b602082019050919050565b5f6020820190508181035f830152612127816120ee565b9050919050565b7f4e487b71000000000000000000000000000000000000000000000000000000005f52603260045260245ffd5b5f60408201905061216e5f830185611a52565b61217b60208301846116d2565b9392505050565b7f4e487b71000000000000000000000000000000000000000000000000000000005f52602260045260245ffd5b5f60028204905060018216806121c657607f821691505b6020821081036121d9576121d8612182565b5b50919050565b7f496e73756666696369656e742066756e647300000000000000000000000000005f82015250565b5f61221360128361179c565b915061221e826121df565b602082019050919050565b5f6020820190508181035f83015261224081612207565b9050919050565b7f4e487b71000000000000000000000000000000000000000000000000000000005f52604160045260245ffd5b5f81519050919050565b5f81905092915050565b5f61229282612274565b61229c818561227e565b93506122ac8185602086016117ac565b80840191505092915050565b5f6122c38284612288565b915081905092915050565b7f5472616e73666572206661696c656400000000000000000000000000000000005f82015250565b5f612302600f8361179c565b915061230d826122ce565b602082019050919050565b5f6020820190508181035f83015261232f816122f6565b9050919050565b7f496e76616c69642061676772656761746f7200000000000000000000000000005f82015250565b5f61236a60128361179c565b915061237582612336565b602082019050919050565b5f6020820190508181035f8301526123978161235e565b9050919050565b7f456d707479206465736372697074696f6e0000000000000000000000000000005f82015250565b5f6123d260118361179c565b91506123dd8261239e565b602082019050919050565b5f6020820190508181035f8301526123ff816123c6565b9050919050565b5f819050815f5260205f209050919050565b5f6020601f8301049050919050565b5f82821b905092915050565b5f600883026124627fffffffffffffffffffffffffffffffffffffffffffffffffffffffffffffffff82612427565b61246c8683612427565b95508019841693508086168417925050509392505050565b5f819050919050565b5f6124a76124a261249d846116c9565b612484565b6116c9565b9050919050565b5f819050919050565b6124c08361248d565b6124d46124cc826124ae565b848454612433565b825550505050565b5f5f905090565b6124eb6124dc565b6124f68184846124b7565b505050565b5b818110156125195761250e5f826124e3565b6001810190506124fc565b5050565b601f82111561255e5761252f81612406565b61253884612418565b81016020851015612547578190505b61255b61255385612418565b8301826124fb565b50505b505050565b5f82821c905092915050565b5f61257e5f1984600802612563565b1980831691505092915050565b5f612596838361256f565b9150826002028217905092915050565b6125af82611792565b67ffffffffffffffff8111156125c8576125c7612247565b5b6125d282546121af565b6125dd82828561251d565b5f60209050601f83116001811461260e575f84156125fc578287015190505b612606858261258b565b86555061266d565b601f19841661261c86612406565b5f5b828110156126435784890151825560018201915060208501945060208101905061261e565b86831015612660578489015161265c601f89168261256f565b8355505b6001600288020188555050505b505050505050565b5f6020820190506126885f830184611a3a565b92915050565b7f4e487b71000000000000000000000000000000000000000000000000000000005f52601160045260245ffd5b5f6126c5826116c9565b91506126d0836116c9565b92508282039050818111156126e8576126e761268e565b5b92915050565b5f6040820190506127015f830185611a3a565b61270e6020830184611a3a565b9392505050565b5f6020820190506127285f830184611a52565b92915050565b5f612738826116c9565b91507fffffffffffffffffffffffffffffffffffffffffffffffffffffffffffffffff820361276a5761276961268e565b5b600182019050919050565b7f4e6f2064617461000000000000000000000000000000000000000000000000005f82015250565b5f6127a960078361179c565b91506127b482612775565b602082019050919050565b5f6020820190508181035f8301526127d68161279d565b905091905056fea264697066735822122016c82375d0565a2370701ff5457531b7084da9786186ce07cb5d2e298dc7845c64736f6c634300081c0033","linkReferences":{}},"methodIdentifiers":{"DOMAIN_SEPARATOR()":"3644e515","coverDebt()":"7a90b990","decimals()":"313ce567","description()":"7284e416","emergencyUpdate(uint80,int256,uint256,uint256,uint80)":"e0ed6e9b","getAllRoundIds()":"a135c3e8","getDataAge()":"ad10c274","getRoundData(uint80)":"9a6fc8f5","getSourceInfo()":"e8009417","getTotalRounds()":"1ad1ec22","hasData()":"63fc38cf","initialize(address,uint64,uint8,string)":"98fde814","latestRoundData()":"feaf968c","pay(uint256)":"c290d691","transferOwnership(address)":"f2fde38b","updatePrice(address,uint80,int256,uint256,uint256,uint80)":"df2dabb6","updatePriceBatch(uint80[],int256[],uint256[],uint256[],uint80[])":"cfd8b6bf","version()":"54fd4d50"},"id":6}